:10000000701B00207D3000006F6500000D2F000088
:100010000D2F00000D2F00000D2F00000D2F0000F0
:100020000D2F00000D2F00000D2F0000692B000088
:100030000D2F00000D2F0000112B00005F65000048
:100040003D3000003D3000003D3000003D300000FC
:100050003D3000003D3000003D3000003D300000EC
:100060003D3000003D3000003D3000003D300000DC
:100070003D3000003D3000003D3000003D300000CC
:100080003D3000003D3000003D3000003D300000BC
:100090003D3000003D3000003D3000003D300000AC
:1000A0003D3000003D3000003D3000003D3000009C
:1000B0003D3000003D3000003D3000003D3000008C
:1000C0003D3000003D3000003D3000003D3000007C
:0C00D0003D3000003D3000003D300000DD
:1000DC007BB972B90029BEBF00204FF0004106E089
:1000EC0008BF00281CBF6FF000414FF0FF3000F03C
:1000FC003FB8ADF1080C6DE904CE002909DB002BEB
:10010C001ADB00F037F8DDF804E0DDE9022304B077
:10011C007047404261EB4101002B1BDB00F02AF8D9
:10012C00DDF804E0DDE9022304B0404261EB41015B
:10013C00524263EB43037047524263EB430300F0BC
:10014C0019F8DDF804E0DDE9022304B0404261EB6C
:10015C0041017047524263EB430300F00BF8DDF8AA
:10016C0004E0DDE9022304B0524263EB4303704721
:10017C00704700BF2DE9F04F099F154604468E4687
:10018C001E46002B40F0CC808A42B2FA82FC4CD93D
:10019C00BCF1000F0BD0CCF1200801FA0CFE20FAB8
:1001AC0008F802FA0CF548EA0E0E00FA0CF44FEAC5
:1001BC0015491FFA85F8BEFBF9FA210C09FB1AE365
:1001CC000AFB08FB41EA03439B452AD9EB180AF1C9
:1001DC00FF3004D29B4502D9AAF102002B44A3EBB9
:1001EC000B03A4B2B3FBF9F209FB123302FB08F8C0
:1001FC0044EA0344A04516D92C1902F1FF3303D26B
:10020C00A04501D9931E2C44A4EB080443EA0040FA
:10021C0027B124FA0CF400233C607B603146BDE826
:10022C00F08F5046DBE71346EEE702B9FFDEBCF178
:10023C00000F2ED18B1A01264FEA154EAAB2B3FB32
:10024C00FEF8210C0EFB183308FB02F941EA0343BC
:10025C00994561D9EB1808F1FF3004D2994502D9C0
:10026C00A8F102002B44A3EB0903A4B2B3FBFEF1EB
:10027C000EFB11334A4344EA0344A2424ED92C19D3
:10028C0001F1FF3303D2A24201D98B1E2C44A41AD4
:10029C00BCE7CCF1200E02FA0CF521FA0EF901FAAA
:1002AC000CF320FA0EFE4EEA03034FEA154800FA4F
:1002BC000CF4B9FBF8F11FFA85FE08FB1192180C2F
:1002CC0001FB0EF640EA0242964221D9AA1801F12E
:1002DC00FF3003D2964201D9881E2A44921B9BB24E
:1002EC00B2FBF8F908FB192209FB0EFE43EA0243A4
:1002FC009E450FD9EB1809F1FF3604D29E4502D961
:10030C00A9F102062B44A3EB0E0346EA004693E741
:10031C000846E3E74E46F6E74046A4E70B46B6E749
:10032C008B4205D90FB1C7E900010026304675E7AD
:10033C00B3FA83FCBCF1000F0FD18B4201D3824284
:10034C0009D8841A61EB030E0120002F6AD0C7E98B
:10035C00004E002662E76046F7E7CCF1200E03FA68
:10036C000CF322FA0EF521FA0EF41D4301FA0CF3EC
:10037C0020FA0EF10B434FEA154A00FA0CF6B4FBC7
:10038C00FAF91FFA85F80AFB19401C0C09FB08F155
:10039C0044EA0044A14202FA0CF23FD92C1909F1AB
:1003AC00FF3004D2A14202D9A9F102002C44641AF4
:1003BC009BB2B4FBFAF90AFB194409FB08F843EAAF
:1003CC00044188452CD9691809F1FF3304D28845BA
:1003DC0002D9A9F10203294443EA0040A1EB080128
:1003EC00A0FB02894945C2464C4602D306D146457C
:1003FC0004D2B8EB020A69EB0504013897B1B6EBED
:10040C000A0361EB040606FA0EFE23FA0CF34EEA1D
:10041C00030326FA0CF6C7E900369AE74846C6E706
:10042C004B46D9E73E46F9E607B5194E194D1A4C1D
:10043C00002301A93046019300F08AFA01A928464D
:10044C0000F086FA01A9204600F082FA01A91348AF
:10045C0000F07EFA01A9124800F07AFA01A91148BD
:10046C0000F076FA01A9104800F072FA01A90F48C1
:10047C0000F06EFA01A90E4800F06AFA01A90D48C5
:10048C0000F066FA4FF4FA7004F0B0FAD0E700BF4F
:10049C0010010020F800002028010020400100205D
:1004AC00B8010020A001002088010020E8010020F4
:1004BC00D00100200002002070B5074C05460E4606
:1004CC0020464FF0FF3104F0E3FA044B5E55204612
:1004DC00BDE8704004F0B0BA18280020FB060020DC
:1004EC0070B5074C05460E4620464FF0FF3104F020
:1004FC00CFFA044B5E552046BDE8704004F09CBA20
:10050C0060280020FF06002038B505460C46074839
:10051C004FF0FF3104F0BCFA0548284400F8014CB8
:10052C00BDE83840034804F087BA00BF48280020D3
:10053C00F80600201828002073B5304C304D314897
:10054C00314E1923009321461823022200F0FCF8A7
:10055C0021460C230B222D4800F078F92B4621461E
:10056C000D222B4800F00EFA2B4621460E2229486C
:10057C0000F008FA2B4621460F22274800F002FA19
:10058C002B46214610222548254D00F0FBF9334619
:10059C0021461122234800F0F5F933462146122258
:1005AC00214800F0EFF92B46214613221F4800F09A
:1005BC00E9F93346214614221D4800F0E3F92B4695
:1005CC00214616221B4800F0DDF92B462146172246
:1005DC00194800F0D7F921461D22184800F042FABC
:1005EC0021461E22164800F03DFA1F2221461548CE
:1005FC0000F038FA002002B070BD00BFCC740000CF
:10060C0083500000E0000020BD50000018020020C4
:10061C0010010020F80000202801002040010020DB
:10062C00EB500000B8010020A00100208801002040
:10063C00E8010020D00100200002002078010020F9
:10064C00680100205801002008B503682BB9044844
:10065C0004F067FF4FF0FF3008BD0020FCE700BF3F
:10066C00E374000070B5054608460E4603F04CFDD9
:10067C0028602846FFF7E8FF044658B9C5E9016031
:10068C00C5E90300A882A8753146044804F049FF67
:10069C00204670BD4FF0FF34FAE700BF75750000BF
:1006AC002DE9F04104460F4616469846FFF7CCFF5D
:1006BC00054638BB069A26614146C4E90287206884
:1006CC0004F02DFD069A2068394604F028FD069AA0
:1006DC002068314604F023FD227DA168206804F0D7
:1006EC0015FD627DE168206804F010FD2169A27D92
:1006FC00206804F00BFD6168044804F012FF2846E2
:10070C00BDE8F0814FF0FF35F9E700BF037500003D
:10071C0038B50546FFF798FF044620B9A96829B9F2
:10072C00074804F0FEFE4FF0FF3407E001222A7563
:10073C00286804F0EBFC034804F0F3FE204638BDB7
:10074C003975000058750000F7B50C46054613487E
:10075C0017461E4604F0E5FE21462846FFF782FFA9
:10076C000446B8B90E4804F0DCFE01230093089A45
:10077C003B4631462846FFF793FF044650B90948DB
:10078C0004F0CFFE2846FFF7C3FF044610B9064815
:10079C0004F0C7FE204603B0F0BD00BFAC750000EE
:1007AC00CA750000E77500000576000008B50368FF
:1007BC002BB9044804F0B5FE4FF0FF3008BD002003
:1007CC00FCE700BFE374000070B5054608460E4612
:1007DC0003F09AFC28602846FFF7E8FF044640B96E
:1007EC00C5E90160E8603146034804F09AFE2046F2
:1007FC0070BD4FF0FF34FAE7D17600002DE9F843D5
:10080C0005460E4617469846FFF7D0FF0446B8B982
:10081C00286843683A46C5E90276D3F80090089BED
:10082C002146C8472868436821461F68324643461C
:10083C00B8476968044804F074FE2046BDE8F883A4
:10084C004FF0FF34F9E700BF99760000F7B50C467E
:10085C0005460E4816461F4604F063FE2146284600
:10086C00FFF7B2FF044670B9094804F05AFE009431
:10087C0001233A4631462846FFF7C0FF044610B91B
:10088C00044804F04EFE204603B0F0BD2B76000069
:10089C00527600007176000008B503682BB9044845
:1008AC0004F03FFE4FF0FF3008BD0020FCE700BF16
:1008BC00E374000038B5044608460D4603F024FCEA
:1008CC0000232060256163612046FFF7E5FF0446A5
:1008DC0028B92946034804F024FE204638BD4FF0C1
:1008EC00FF34FAE7337700002DE9F04704460D4654
:1008FC0092469846FFF7D0FF064620BB27462A466D
:10090C0057F8040B656143683146D3F800905346A1
:10091C00C84701222068C4F8088002FA05F3E36096
:10092C004368DB680BB139469847206843681B69FC
:10093C0013B12A46002198472946044804F0F1FDDA
:10094C003046BDE8F0874FF0FF36F9E70A77000034
:10095C0070B505460E46FFF79FFF044620B96A693D
:10096C002AB9074804F0DDFD4FF0FF3405E0286894
:10097C00436821469D683346A847204670BD00BF9A
:10098C0068770000F8B504460F460C4815461E461D
:10099C0004F0C7FD39462046FFF78CFF084804F0E9
:1009AC00C0FD33464FF4997229462046FFF79CFF51
:1009BC00044804F0B6FD0020F8BD00BF88770000A5
:1009CC00A4770000BF77000008B503682BB9044872
:1009DC0004F0A7FD4FF0FF3008BD0020FCE700BF7E
:1009EC00E374000038B5044608460D4603F08CFB52
:1009FC00012323730023C4E90005A3602046FFF7FD
:100A0C00E3FF044628B92946034804F08AFD204632
:100A1C0038BD4FF0FF34FAE7147800002DE9F041AF
:100A2C0006460D469046FFF7CFFF0446A8B930683E
:100A3C00B56043682A461F6821464346B84730686C
:100A4C00436821465F68337B2A46B84729460448E9
:100A5C0004F067FD2046BDE8F0814FF0FF34F9E764
:100A6C00EE77000070B504460E460A48154604F0B1
:100A7C0058FD31462046FFF7B5FF074804F051FDFD
:100A8C00012229462046FFF7C9FF044804F049FD1E
:100A9C00002070BD467800005F7800007778000079
:100AAC000B6801330B60014B1B681847B026002004
:100ABC002DE9F04F85B09B460E9CDFF88890012CF9
:100ACC00B8BF0124012B0CBF3023202316468246CD
:100ADC008846029301250A270022B6FBF9F30193FD
:100AEC000AB9B1451DD8019B414603F13000D047EE
:100AFC0001350122019B013F012F09FB13664FF0C9
:100B0C000A03B9FBF3F9E8D1414606F13000D047AE
:100B1C00BBF1030F02D1641B002C0EDC05B0BDE849
:100B2C00F08FBC42E6DBBBF1020FE3D841460298E2
:100B3C0003920135D047039ADCE741462020D04789
:100B4C00013CE9E700CA9A3B014B1860704700BFB3
:100B5C00B026002007B50023019302460B4603483C
:100B6C0001A904F06EFB03B05DF804FBAD0A0000B4
:100B7C004FF02003EFF3118283F31188BFF36F8FD3
:100B8C0006490123C1F840354FF08041C1F8783552
:100B9C0082F31188BFF36F8F0020704700E0014093
:100BAC0020B1034B800143F001031847704700BF8D
:100BBC00B07000000C4B1B78062B10D10B4B1B6834
:100BCC001A070CD10A4B186800F0F003302B08D030
:100BDC0000F0E000A0F1400358425841704700205B
:100BEC0070470120704700BFE00F00F0E40F00F0E9
:100BFC00E80F00F0094B1B78062B0CD1084B1B6837
:100C0C001A0708D1074B186800F0F000A0F1300368
:100C1C005842584170470020704700BFE00F00F069
:100C2C00E40F00F0E80F00F008B5FFF7C3FF28B1A0
:100C3C00784B794A1B68C3F304231360FFF7DAFF80
:100C4C0010B1764B764A1A60FFF7B4FF28B1754B9A
:100C5C00754A1B68C3F342331360FFF7CBFF20B117
:100C6C00724AD36823F08073D360FFF7A3FF40B1BF
:100C7C004FF080430022C3F80C21C3F81021C3F8B5
:100C8C003825FFF7B7FF10B1694B03221A60FFF745
:100C9C00B1FF40B1674B05221A6001229A6700220E
:100CAC009A603F225A60644B1B78062B50D1634BE1
:100CBC001B6819074CD1624B1B6803F0F003502BD7
:100CCC0046D14FF080525F4BD2F80414C3F8201574
:100CDC00D2F80814C3F82415D2F80C14C3F828154C
:100CEC00D2F81014C3F82C15D2F81414C3F830151C
:100CFC00D2F81814C3F83415D2F81C14C3F84015E4
:100D0C00D2F82014C3F84415D2F82414C3F84815AB
:100D1C00D2F82814C3F84C15D2F82C14C3F850157B
:100D2C00D2F83014C3F85415D2F83414C3F8601543
:100D3C00D2F83814C3F86415D2F83C14C3F868150B
:100D4C00D2F84014C3F86C15D2F84424C3F87025BB
:100D5C00FFF730FF28B13C4B3C4A1B6803F04F03B4
:100D6C001360FFF727FF48B14FF08043D3F80024FE
:100D7C00D20744BF6FF00102C3F80024344B1B6848
:100D8C00062B08D1334B1B68062B01BF324A136864
:100D9C0043F4806313604FF01023D3F80022002A31
:100DAC0003DBD3F80432002B2FDA2C4B0122C3F8CF
:100DBC000425D3F80024002AFBD04FF01022152173
:100DCC00C2F80012D3F80024002AFBD04FF01023F5
:100DDC001522C3F80422214B1A46D3F8001400291B
:100DEC00FBD00021C3F80415D2F80034002BFBD043
:100DFC00BFF34F8F1A491B4BCA6802F4E0621343CE
:100E0C00CB60BFF34F8F00BFFDE7174B174A1A603B
:100E1C0008BD00BF240300104035014074C00740DA
:100E2C000DF0ADBA440200103C050040F0ED00E0BE
:100E3C00A005004010560040E00F00F0E40F00F059
:100E4C00E80F00F000C0004058020010E40E004013
:100E5C0030010010340100103C17004000E001404C
:100E6C0000ED00E00400FA05B42600200090D00349
:100E7C0013B5044603F012FFC0F307230193C0F32C
:100E8C0007430093044A030E0021204604F06DFD35
:100E9C00002002B010BD00BFD778000010B504468A
:100EAC0005F060FF034A03460021204604F05DFD77
:100EBC00002010BDC878000010B5044601F0D4FD28
:100ECC00034A03460021204604F04FFD002010BDCC
:100EDC00B2780000F8B50B4A0B4C0C4D0C4F0021AE
:100EEC00064604F042FDAC4201D10020F8BD636817
:100EFC0033B123683A461B680021304604F035FDB7
:100F0C000C34F0E78D79000040270020B827002032
:100F1C0097790000F8B50C4B0C4F53F82140013178
:100F2C00064653F821500020A54200D8F8BD63684E
:100F3C003BB1236830461B683A46002104F015FD8E
:100F4C0001200C34F0E700BF5871000097790000C5
:100F5C0010B51F4A0446002104F007FD022120466B
:100F6C00FFF7D8FF014618B91A4A204604F0FDFCD9
:100F7C00194A0021204604F0F8FC03212046FFF713
:100F8C00C9FF014618B9134A204604F0EEFC134A77
:100F9C000021204604F0E9FC00212046FFF7BAFFAF
:100FAC00014618B90B4A204604F0DFFC0C4A00211C
:100FBC00204604F0DAFC01212046FFF7ABFF014686
:100FCC0018B9044A204604F0D0FC002010BD00BF24
:100FDC004B79000059790000617900006F790000AD
:100FEC007E79000037B58368D3F858225206044640
:100FFC000D4608D5B3F85822C0686FF38612A3F8D3
:10100C00582205F0ADF9E368DB6863B99DB3A068BD
:10101C00383004F07AFCA36878B303F1380103F597
:10102C009C7005F0CAFAA268E0680DF1060338322C
:10103C00294605F098F958B9A06800F59C7138302C
:10104C0005F0BBFAA068383004F05FFCADF8060080
:10105C00204604F057FF0A4A0A49606904F05BFC19
:10106C00204600F085FEA368BDF806209A865A86B5
:10107C00204600F03FFE03B030BD83F83801D2E7C4
:10108C00F3790000A07A00002DE9F04F9DB00446E2
:10109C000023039304F03CFF204604F0C1FE18B972
:1010AC008D49606904F037FCA068142200210830D7
:1010BC0005F00EFB204604F05AFEA168E0684A8E4B
:1010CC00383105F087F9204605F009FAA2680C239F
:1010DC0038320FA904A804F0DFFC049A03462AB99D
:1010EC006FF0070528461DB0BDE8F08F28B17B4A8C
:1010FC000221204604F0A5FFF2E70546074681468B
:10110C008246064683463EE0754958F8340C05F095
:10111C0073FA002845D058F8342C5946204601F073
:10112C00CFF9022828D1B9F1000F09D0204605F0DB
:10113C00F8F9A2680C2338320FA904A804F0ACFC0F
:10114C00A0684369002B40F08F80002DC8D0C36885
:10115C009D420CD00B9500F1080503E0A3680B959C
:10116C0003F108050AAE0FCE0FC533682B6020467D
:10117C0004F0DEFB0125B5E703281AD00136B8468A
:10118C004FF001094746049BB342CCD98EB11CAB3E
:10119C0003EB8608534958F8340C05F02DFA002857
:1011AC00B2D1002DDAD1504A0221204604F049FF79
:1011BC0096E705AB019303AB07F1010800933246A8
:1011CC003B465946204600F043FDB8F1000F01D0D4
:1011DC00039B83B9002EA6D1A368DB6913B1DB682E
:1011EC00002BA0D1414B0093414A0F9B022120467A
:1011FC0004F027FF74E719681CAB03EB860353F864
:10120C00340C05F0F9F90028BCD1039FFB68BBB185
:10121C00B9F1000F07D0204604F07AFE204600F00A
:10122C0069FD344AC0E7A368BE4603F1080CBEE86A
:10123C000F00ACE80F00DEF80030CCF80030B246FE
:10124C00D7F804C0BCF1000F08D0BE46BEE80F00B2
:10125C000AAD0FC5DEF800302B6065460136D7F8B5
:10126C0008B04FF000088DE7049D037EA5EB0A053E
:10127C008BB19D42427E02D313449D420BD98368AD
:10128C001D4A0221204604F0DCFE204604F050FBEF
:10129C006FF0150526E700F53B7003F0BBF8A3686B
:1012AC00B3F8582242F08002A3F858220FAA29461C
:1012BC005B6902EB8A02204698470546A068B0F8A5
:1012CC0058326FF3C713A0F858324FF0FF3100F5C6
:1012DC003B7003F02FF805E7A47A0000007A0000B9
:1012EC00177A0000147A00001E7A00003C7A000085
:1012FC00287B0000507A00007F7A00002DE9F04135
:10130C0004464068374A1F46036886B01D6823466A
:10131C00A8470646002861D101464FF44172A068E7
:10132C0005F0D6F9A36822681A60E06805F0BDF8EC
:10133C00A06800F53B7005F0C2FB4FF427784FF422
:10134C001775A068284405F0AAFDA068002243196F
:10135C0001214044103503F0A1FDB5F5277F08F1BC
:10136C001408EED1A36900251D60A368B3F85822B8
:10137C00186842F01002A3F85822B3F8582242F031
:10138C000402A3F85822B3F8582242F02002A3F822
:10139C00582201221A71144A9A6204F0B6FAA36810
:1013AC0083F82C00A268B2F8583243F00203A2F87A
:1013BC0058320E2303930C9B0094CDE90173D4E9AE
:1013CC0009010A4BCDE904554FF4006203F0D8FB38
:1013DC00A368216AC3F8000305F058FC304606B038
:1013EC00BDE8F0816359000018005000711B00002B
:1013FC0083681B79012B10B504460BD1002100F03A
:10140C00BFFC0649606904F086FA204604F099FA9C
:10141C00002010BD6FF02200FBE700BFA37A000094
:10142C002DE9F04F8368BFF35B8FADB0044603F535
:10143C00167353E8002F42F0080243E800210029FC
:10144C00F7D1BFF35B8FA3681B79022B40F0788335
:10145C0000230B936068036801221D690DF12B01B9
:10146C000BABA8470B9B002B00F06A839DF82B104D
:10147C000806EFD4A0684379022B00F25F83DFE803
:10148C0013F00300C702ED020D291BD00A2919D055
:10149C00B0F858326FF30F23A0F85832092955D001
:1014AC003AD80029D6D0082900F01C82A1F12003DB
:1014BC005E2B00F22682B0F8583243F04003A0F8BD
:1014CC0058321FE1D0F8583213F47F4F05D0D0F8C2
:1014DC005832C3F307239942E0D1B0F8583261F384
:1014EC000F23A0F85832438E93B9C26982B9B0F871
:1014FC00583262F38613A0F85832E06804F030FFDB
:10150C008549606904F007FA204604F01AFAA1E74D
:10151C002046FFF7B9FDF7E71B2914D07F29C5D169
:10152C00D0F858325F0795D5B0F8583243F04003E5
:10153C00A0F85832D0F858329E0600F1DE812046D1
:10154C0004F0C0FD86E70123437183E7D0F85832DD
:10155C00C3F38009B9F1000F3FF47CAFB0F85832F7
:10156C0043F04003A0F85832438EFF2B3FF472AF88
:10157C00828E00F1380100F59C7005F07FF8A268AE
:10158C00938E1344002183F8381102F59C720C23BE
:10159C001FA90DA804F080FAA3689A8E134493F83F
:1015AC003730202B54D0093B042B8CBF0023012354
:1015BC000D9919B1002B4ED101294BD100250C9559
:1015CC000C9B2CAA02EB8303002653F834AC504638
:1015DC0004F09BF9B046049005960396B3461AAFF7
:1015EC00002D45D0A9682B1C18BF0123CDE9017330
:1015FC0015AB0093029A4346204600F029FB159B3D
:10160C00002B39D01868002834D0DA68002A31D180
:10161C009B68B3FA83F35B09049A0293514604F076
:10162C00F7FF029B034310D1159B186804F0DDFFF4
:10163C00059B834238BF03469BB205930136BBF131
:10164C00000F02D1CDF80C80CB4608F10108C7E79A
:10165C000123ADE701390023019310AB00931FAABE
:10166C000CAB204604F004FB05460028A8D1F1E69B
:10167C002946B8E70023CFE7012E4FD10C9B2CAAAB
:10168C0002EB830353F8340C04F03FF9064605B122
:10169C00AD68A3680833CDE900732946DDE9022360
:1016AC00204600F0D5FA1A9B186804F02EF98642F1
:1016BC0007D01A9B1968821B92B23144204604F061
:1016CC00FFFCA3689A8E1A4492F83820202A1DD069
:1016DC00093A042A1AD9D3F85822D20711D5B3F8EB
:1016EC0058226FF30002A3F858222021204600F064
:1016FC000FFCA268B2F8583243F00103A2F858323A
:10170C00A8E62021204600F003FCA3E60121204698
:10171C0004F09AFB9EE600BFA47A000006937FF6C5
:10172C0099AE0C9ADFF830832CAB03EB820252F8A3
:10173C00343C0493184604F0E8F8A268069BDDF8E4
:10174C000C90089013860696002D7BD0A968A36890
:10175C00029A083301931AAB009320464B4600F0D3
:10176C0077FA1A9B186809F1010900286CD11A9BA9
:10177C00D3F800A0BAF1000F76D1A368A3F830A07B
:10178C00069B013B0693DFD1AD49606904F0C3F8B9
:10179C00204600F0EFFB0C9B2CAA02EB830353F8C2
:1017AC00340C04F0B2F8039B804603F10109002DC0
:1017BC0000F09280A96815AB01930EAB0093204604
:1017CC00DDE9022300F044FA0E9BD3F800A04FF69B
:1017DC00FF77002D00F08480A968029A1AAB019360
:1017EC000FAB009320464B4600F032FA0F9B09F1E9
:1017FC00010BDBB10E9A18681168002211F802C0B7
:10180C00835C634505D123B101324FF6FF739A42D5
:10181C00F4D1B8F1000F01D042455FDB974206F1DD
:10182C00FF36A8BF1746012EBFB257D1002F3FF489
:10183C0011AEA7EB080292B20AEB0801204604F0A5
:10184C003FFC07E6294682E7DA681AB99B68002B49
:10185C003FF47AAF049B002B89D0089A049904F0CA
:10186C00D7FE002883D06FE7404604F04EF8059B66
:10187C001844A3681FFA80FB40465F8D04F045F8BE
:10188C000990504604F041F8ABEB000083B2A1681C
:10189C000793099B0A8EFF1A97FBFBFB1FFA8BFB26
:1018AC00501CB2FBFBF30BFB132292B2088662B9FD
:1018BC00CDF800A04346634A0721204604F0C1FB43
:1018CC000799204600F006FA5AE753465E4A07216C
:1018DC00204604F0B6FBF3E729466CE7D94678E7D7
:1018EC0029467AE7D0F858325B077FF5B3ADB0F8EC
:1018FC00583243F04003A0F85832204604F0FDFB68
:10190C00A8E5D0F858325D077FF5A4AD013916294A
:10191C003FF6A0AD01A353F821F000BF131B00004C
:10192C00851900008D1900004B150000071B0000E5
:10193C00B319000061140000611400006114000070
:10194C0061140000BB190000C319000061140000F1
:10195C0061140000611400006114000061140000A7
:10196C00611400006114000061140000DF19000014
:10197C00611400000B1A0000204604F0D0FA69E54F
:10198C00204604F0C5FA204604F04AFA18B92C494E
:10199C00606903F0C0FFA268B2F8583243F040030C
:1019AC00A2F85832B0E5204604F0C1FA52E52046C0
:1019BC0004F0C6FA4EE56069244A234903F0ABFFF4
:1019CC006069234A204903F0A6FF204600F0D2FAB2
:1019DC0040E5204604F096FAA3681B49002283F8E0
:1019EC0038209A865A86A268B2F8583243F04003DF
:1019FC00A2F858326069174A03F08DFF2AE5204699
:101A0C0000F008FAA268B2F8583243F0400375E6C9
:101A1C005B2901D1022397E5D0F85832580706D537
:101A2C00622908D14FF0FF31204604F031FAA36847
:101A3C0000225A710EE56629F9D10121F4E700BFA5
:101A4C00A47A00009D7A0000A07A0000F7790000CB
:101A5C00FB790000F37900009A7A000000234371AF
:101A6C00D0F858325A077FF5F5AC31391B293FF6BF
:101A7C00F1AC01A353F821F00F1B00001B1B00005D
:101A8C00391B0000031B00006114000061140000EE
:101A9C006114000061140000611400006114000066
:101AAC006114000061140000611400006114000056
:101ABC006114000061140000F51A0000FF1A000008
:101ACC00B31900008519000061140000071B000009
:101ADC0061140000131B000061140000611400006D
:101AEC00611400001F1B000001212046FFF77AFA49
:101AFC00B0E40021F9E703234371204604F008FA0F
:101B0C00A8E403234371204604F0FCF9A2E4032368
:101B1C004371D0F85832B0F8582203F0010383F027
:101B2C00010363F30002A0F8582293E403234371EA
:101B3C00D0F858325B077FF58DAC00E5002303E548
:101B4C00A368BFF35B8F03F5167353E8002F22F0E5
:101B5C00080243E800210029F7D1BFF35B8F2DB0B9
:101B6C00BDE8F08F37B504464068036800219B68D8
:101B7C009847D0B92046FFF73BFCB0B9A0680321C9
:101B8C004FF0FF3200F5277003F09CF90546A06872
:101B9C004FF0FF3100F53B7002F0CCFB3DB12B4612
:101BAC00204A0221204604F04CFA03B030BD606894
:101BBC0003685B6903B19847A56801AA694605F5F6
:101BCC001F7005F071F9009BB3B10023C5F8843286
:101BDC00A368D3F858321B070AD4606803685B68A3
:101BEC009847054620B9E06804F0E8FBA3681D712E
:101BFC0002F01CFF01F0F6F9A56801AA694605F58B
:101C0C00177005F051F9009B2BB10023C5F8643215
:101C1C002046FFF705FCA06800F53B7002F0FAFBCC
:101C2C00ACE700BFA67A000010B5044613460A467E
:101C3C000146064801F00EFB23691B7923B12046AF
:101C4C00BDE8104003F0C0BE10BD00BFED59000050
:101C5C0070B5DDE904460020206052B90F48104AE7
:101C6C00121AB3EBD20F03D200EBC3035B682360F1
:101C7C0070BD0029FCD00A784D683AB1184631463F
:101C8C00A8473368002BF3D02660F1E714225343A6
:101C9C00EA18EB58002BEBD02260E9E778700000D3
:101CAC00B0700000014A024904F099B8BD7A0000F6
:101CBC00A07A000059B1002981EAE172A2EBE1722D
:101CCC00CCBF412342230249406904F088B87047D5
:101CDC00CB7A000059B1002981EAE172A2EBE172E2
:101CEC00CCBF432344230249406904F078B87047C1
:101CFC00CB7A000010B5044604F092F828B1606964
:101D0C000549BDE8104004F06AB804F1080004F07D
:101D1C0073F80028F3D110BDA47A00002DE9F0412E
:101D2C000646054656F8084F04F12000628EA18E37
:101D3C0003F09CFE3046B4F82480E78C04F05CF889
:101D4C0018B10A49686904F04AF8B84507D1218CE2
:101D5C00638C2846C91ABDE8F041FFF7BBBFE18C84
:101D6C00A38C2846C91AFFF7A5FFF0E7A47A000058
:101D7C00826802494069383204F031B8A07A000018
:101D8C00836807B593F82E208A4212D083F82E1060
:101D9C00406989B1094B009333238DF804302F31FE
:101DAC006D238DF80510ADF806306A46044904F031
:101DBC0016F803B05DF804FB024AF7E71B5B313BF6
:101DCC00A07A0000C77A000037B50D4609780446A2
:101DDC00FFF7D6FF6B78CBB1A26892F82F1099421F
:101DEC0014D045F61B31ADF8001034218DF80210DB
:101DFC0003F12F018DF803106D21ADF8041082F85A
:101E0C002F30034960696A4603F0E9FF03B030BD27
:101E1C00A07A0000F8B583685A8E0546002A46D091
:101E2C00988E002843D03730184403F13806034607
:101E3C00C41AB342A4B219460DD311F80179202F5C
:101E4C0033D01946013B0878202804D001349E4237
:101E5C00A4B21946F5D9631C4E1C121B194430460A
:101E6C0004F0F5FBA9684A8E121B92B24A860A440A
:101E7C000027614282F83870284609B203F0E4FF6B
:101E8C0068690B4A0B4903F0AAFF39463346094AE5
:101E9C00284604F0D6F86869FFF704FF6869064A1B
:101EAC000449BDE8F84003F09ABF0B46C0E7F8BD03
:101EBC00C17A0000A07A0000C47A000070B5044614
:101ECC000D46164612B14069FFF7ECFEA268938EE0
:101EDC003833134420460C4A002104F0B2F8204653
:101EEC0050F8083F5A8E9A8603F086FF28B106B147
:101EFC001DB10649606903F072FF6942204609B2C0
:101F0C00BDE8704003F0A0BFA07A0000A47A0000E6
:101F1C0013B583688DF80710D3F85822D2070446FE
:101F2C001DD5998E5A8E8A4219D0481C98860B441E
:101F3C009DF8072083F83820A368D3F858325B0744
:101F4C000BD56069094903F04AFF204603F068FF8E
:101F5C0018B10749606903F042FF02B010BD0122BD
:101F6C000DF10701204604F079F8F6E7CF7A00006E
:101F7C00A47A000083680A4A1B6810B50446032142
:101F8C0004F05FF8A368D3F858325B0707D52046F6
:101F9C00FFF7EEFE2046BDE81040FFF7BFBE10BDB8
:101FAC00A07A000013B5074802F0AEF80024012314
:101FBC00014600941A460448FFF7A0F9204602B0E7
:101FCC0010BD00BFD27A0000C0710000406810B58F
:101FDC000C4601688B606368C1E900422BB19B6CB5
:101FEC001BB1024604492046984763689B6A0BB1B3
:101FFC0020469847002010BDC96100002DE9F0472C
:10200C00054690460F4600296ED000243B5D202BE0
:10201C0025D0093B042B22D9DFF8D090384604F0A8
:10202C00E4FAAB68598D80B2001BA1EB080398420F
:10203C0007EB040A15D95046002610F8012B202A6C
:10204C0006D0A2F1090CBCF1040F02D80A2A31D037
:10205C00334608EB060291422BD90136EDE70134E9
:10206C00D4E753460026B04217D013F8012B0A2AA6
:10207C0004EB06091BD1686903F0A6FC32465146F5
:10208C00284603F081FF1949686904F003F94146B9
:10209C00284609F10104FFF71DFE3919686904F09F
:1020AC00F9F868691149BDE8F04704F0F3B8013656
:1020BC00D9E71E46686903F087FC3246514628462C
:1020CC0003F062FF34443B5D202B0BD0093B042B07
:1020DC0008D94946686904F0DDF841462846FFF7FF
:1020EC00F9FD9BE70134EEE7BDE8F087A47A000028
:1020FC002DE9F04F82688DB01269002304460693D7
:10210C00002A51D098461D4607AE06AFCDE90076A1
:10211C00A1684346012209692046FFF799FD069BF9
:10212C0008F10109002B3CD0186810B104F05DFADD
:10213C0080B2854238BF0546B8F1FF3F2FD1204A07
:10214C00DFF880900021204603F07BFF0023CDE9CF
:10215C000076A16801220969204603F1010BFFF703
:10216C0077FD069B03B31A6816480592D3F80480D2
:10217C0004F03BFA059A82467AB1CDE90129009523
:10218C004B46114A0021204603F05BFFB8F1000FCB
:10219C000DD10E49606904F07DF85B46D7E7C8465F
:1021AC00B4E7B9F1010FCAD10DB0BDE8F08F6A1CCC
:1021BC0002EB4A0292B241462046FFF71FFFECE7C2
:1021CC00F17A0000097B0000FF7A0000A47A00007D
:1021DC00836873B505469868C8B104F006FA84B2F2
:1021EC000C4E304604F001FAAB68009604449B6830
:1021FC00094A2846002103F024FFAB68A4B2D96831
:10220C002246284602B0BDE87040FFF7F7BE0446F0
:10221C00E6E700BFED7A00009E7A000038B5074D66
:10222C00074A04462946406904F07BF86069054A70
:10223C00294604F076F8002038BD00BFA07A0000D3
:10224C00127B0000167B000010B50446044A0549B9
:10225C00406904F066F8A368034A9A62002010BD36
:10226C001B7B0000A07A00001800500008B58369A1
:10227C00034A1B68002103F078FB002008BD00BF57
:10228C00447D000010B5064A0446002103F06DFBA6
:10229C002046044A002103F068FB002010BD00BF5B
:1022AC00597B0000487C0000F0B5104F85B0044607
:1022BC000025A268E0680DF10E0302F59C72012165
:1022CC0004F051F8BDF80E00A36858B103F59C73E7
:1022DC0000936E1C2B463A460021204603F045FB2A
:1022EC003546E6E783F8380105B0F0BD007D000007
:1022FC00022907B50CD1536801930D4B0093136859
:10230C000C4A03F032FB6FF0150003B05DF804FBD0
:10231C008368094AD3F8583213F0040F4FF00001C8
:10232C00064B18BF1346064A03F01FFB0020ECE7D0
:10233C002E7B0000257B000038790000217B0000FB
:10234C00437B0000F0B5012985B005460DD05368DC
:10235C000193534B00931368524A022103F005FB7F
:10236C006FF01504204605B0F0BD4F4A4F49406947
:10237C0003F0D7FF6FF0F9012846FFF79BFCFA2119
:10238C002846FFF7A7FCA86800244FF4807221466A
:10239C0000F59C708DF80B4004F09AF9444968697B
:1023AC0003F0BFFF686903F00FFB4FF47A7668689F
:1023BC00036801221F690DF10B0103ABB847039BA6
:1023CC0053B9013E4FF47A70B6B204F05DFC002EA6
:1023DC00EDD16FF0220431E09DF80B30AA681B2B75
:1023EC0053D092F838111B29E1D1522B4DD1144402
:1023FC00002384F8383192F839115B294DD102F55C
:10240C009D701F46022610F8011B01363B29B6B2FF
:10241C0026D1B6F5807FDCD006F59C7010440023E5
:10242C0010F8014B34BBFA2B28BFFA23FA2F538533
:10243C003B4628BFFA2382F8384113851D4A1B49B5
:10244C00686903F06EFF002C8CD0AB681A4A9A6254
:10245C0004211A4A284603F088FA6FF0070481E732
:10246C0007EB870301EB4303303BB6F5807F9FB24C
:10247C00C9D1AEE703EB8303013604EB4304B6B2D8
:10248C00303CFF2EA3B2CBD9A3E711190134A4B26F
:10249C00092C81F838318AD9002382F8383198E731
:1024AC002E7B0000257B00000C7B0000A07A000036
:1024BC00547B00000F7B0000180050000A7D0000C8
:1024CC002DE9F04F824689B016468B4621B903247C
:1024DC00204609B0BDE8F08F104603F0ECFF002851
:1024EC00F5D00025019502249BF80020DBF8043080
:1024FC0068428AB103A99847039B002B5BD1019BCF
:10250C00002BE5D0DAF80800324600F1360100F570
:10251C009C7003F086FBDBE76FF013026A4303EB5E
:10252C0002089B58002BEAD00022D8F80010304645
:10253C0003F0E8F980BBD8F80090DAF80870B9F12C
:10254C00000F2CD0484604F050F884B2FB8E0133B7
:10255C002344B3F5807F24DC314607F59C7004F0EE
:10256C000FF8804628B304F040F882B2601C0132A8
:10257C004146404404F06BF822464946404604F07C
:10258C007DF8202308F80430FB8E1C44019B013499
:10259C000133FC8601930024013DA5D1AFE74C46E5
:1025AC00D4E73346054A0421504603F04AFD012482
:1025BC00A5E70224A3E70DF10C08B5E7278100007D
:1025CC000A2838B50446074D04D1286843680D2104
:1025DC005B68984728684368E1B25B689847204677
:1025EC0038BD00BFB005002010B5044C204601F0EA
:1025FC0001FA2046BDE81040FEF7A6BACD25000032
:10260C0008B5044801F080FD034B1860FFF7ECFFA0
:10261C00002008BDD27A0000B005002010B54FF0A4
:10262C002003EFF3118283F31188BFF36F8F154CE6
:10263C00237833B982F31188BFF36F8F6FF04400A6
:10264C0010BD013BDBB2237033B182F31188BFF3B1
:10265C006F8F6FF00F00F3E70B4B1878012138B137
:10266C00217082F31188BFF36F8F6FF00A00E7E7D8
:10267C00197082F31188BFF36F8F044A11601870C0
:10268C00DEE700BF6A070020690700200400004055
:10269C00F8B54FF02002EFF3118382F31188BFF3EA
:1026AC006F8F294A1078441C147080B183F3118801
:1026BC00BFF36F8F4FF08043D3F80C3403F001134A
:1026CC00B3F1011F0CBF00206FF0430009E01F4D58
:1026DC002F783FB1107083F31188BFF36F8F6FF0B9
:1026EC000A00F8BD01262E7083F31188BFF36F8F9B
:1026FC004FF0804419B3384600F0A0FBC4F80071C9
:10270C00D4F80433C4F804632660D4F8002192B1E1
:10271C000022C4F800210E4A13F0010F4FF0010300
:10272C0008BFC4F808330020C2F8803100F076FBF3
:10273C0000232B70BEE720BF40BF20BFE5E7C4F8E5
:10274C0000112660F4E700BF6A070020690700202B
:10275C0000E100E070B54FF02002EFF3118382F33B
:10276C001188BFF36F8F244D2A789AB183F31188A7
:10277C00BFF36F8F4FF08042D2F81C34D2F818247C
:10278C0003F0030343F48033934314BF6FF043000F
:10279C00002070BD01242C7083F31188BFF36F8F60
:1027AC004FF08043154EC3F804210225C3F81815C9
:1027BC00C3F8045311F0030134604FF01806C3F84A
:1027CC000863C3F80C21C3F81021D3D11022C3F82D
:1027DC003825C3F80463D3F81824D20302D4C3F801
:1027EC000453C7E7C3F80443FFF752FF0028C1D1D5
:1027FC00034BC3F80041BDE7680700200800004008
:10280C0000E100E0F8B54FF080430546D3F808C16D
:10281C00D3F80423D3F80071D3F80403D3F804617C
:10282C00D3F80C11D3F81041003402F0010218BF98
:10283C000124BCF1000F03D04FF0000CC3F808C109
:10284C00002F41D04FF080430027C3F8007152B1E4
:10285C004FF08043224F01224FF0020CC3F80823A3
:10286C00C7F800C01A61EEB959B11D4B4FF0804644
:10287C00002119602846C6F80C11FFF7CFFE012382
:10288C00736174B14FF0804300210124C3F810111F
:10289C002846C3F80443FFF7FBFE10B9114BC3F8ED
:1028AC000041F8BD4FF080430022C3F80421820799
:1028BC00DAD50222C3F80823D3F81C349B07D3D1F2
:1028CC000029DFD00124D0E7002ACCD04FF0804380
:1028DC00D3F80C3403F00113B3F1011FC3D1B7E7E4
:1028EC00340C004000E100E0104B002210B4C3F89F
:1028FC0040214FF02002EFF3118482F31188BFF3D3
:10290C006F8F0B4AD3F804051168401A20F07F43EF
:10291C0023F0FF030B44136084F31188BFF36F8F14
:10292C00C0F30F2010BC02F045BA00BF00100140EC
:10293C00B405002037B51E4801F0E6FB002833D063
:10294C0043681C4D1B680121984700244FF4807389
:10295C00C5F80845C5F840354FF48033C5F8043345
:10296C0003F1804303F58A534FF400321C601B685B
:10297C000193019B104B0121C3F8802111202246A9
:10298C0000F070FA112000F049FA0C4A0123136090
:10299C002B60D5F8043503F5807323F07F43C5F81D
:1029AC004035204603B030BD4FF0FF30FAE700BF92
:1029BC00798100000010014000E100E008100140A6
:1029CC0070B54FF6FE76B0F1FF3F08BF30464FF0C2
:1029DC002003EFF3118483F31188BFF36F8F134D32
:1029EC00134BD5F804251B68411EB142A2EB030022
:1029FC00A8BF314620F07F4021EAE171FF3000EBA7
:102A0C00012020F0FF0003449A1A22F07F4222F0AA
:102A1C001F020AB903F5807323F07F43C5F84035D4
:102A2C0084F31188BFF36F8F70BD00BF001001409D
:102A3C00B40500204FF02002EFF3118382F31188CC
:102A4C00BFF36F8F064AD2F80405064A1268801A43
:102A5C00C0F30F2083F31188BFF36F8F704700BF53
:102A6C0000100140B40500204FF02003EFF3118259
:102A7C0083F31188BFF36F8F0649074B0868D3F8AF
:102A8C00043582F31188BFF36F8F1B1A23F07F4339
:102A9C0018447047B40500200010014004488168B8
:102AAC00406A884203D003494FF080520A60704755
:102ABC00B806002004ED00E0044800232021C218D1
:102ACC000133272B82F80013F9D1704700E100E0A5
:102ADC00094A0A49936809689966094958664B6816
:102AEC0043F080534B60002383F31188BFF36F8F47
:102AFC009368986E704700BFB8060020C47400003D
:102B0C0000ED00E013498A684FF028001044EFF301
:102B1C00098C80E8F01F202080F31188BFF36F8FA1
:102B2C000D4F4FF000664A6A8A603E60506E00237B
:102B3C00536680F3118804B50648806803F018FDCD
:102B4C00BDE8044002F1280090E8F01F8CF30988DE
:102B5C0070470000B806002004ED00E01EF0040FE2
:102B6C000CBFEFF30880EFF30980816931F8021C88
:102B7C0011F0FF010229FFD001B503F0EEFC01BDFD
:102B8C0038B51C4C05461C4802F0CBFCA26AD10699
:102B9C0002D51A4802F0C5FCA36A1A0702D51848D8
:102BAC0002F0BFFC134CA36A9B070ED5154802F02C
:102BBC00B8FC616BA36A180607D5134802F0B1FC88
:102BCC001DB1A36A23F08003A3620A4CA26AD20748
:102BDC0002D50E4802F0A5FCA36A9B0602D50C4850
:102BEC0002F09FFC034B9A6A9A6A42F0FF029A62C7
:102BFC00002038BD00ED00E0258200003C82000082
:102C0C0070820000848200009D820000B48200006B
:102C1C00D482000038B51E4C05461E4802F081FCDB
:102C2C00A26AD10402D51C4802F07BFCA36A1A05E7
:102C3C0002D51A4802F075FC154CA36A9B050ED5FB
:102C4C00174802F06EFCA16BA36A180407D515484F
:102C5C0002F067FC1DB1A36A23F40043A3620C4C81
:102C6C00A36A590502D5104802F05BFCA36ADA0589
:102C7C0009D50E4802F055FC054A936A43F47F438C
:102C8C009362002038BDA36A9B04F5D50848F1E790
:102C9C0000ED00E097810000AE8100007082000022
:102CAC00C0810000DA810000F08100000C8200007D
:102CBC00D482000010B5194C194802F032FCA26AFB
:102CCC00930102D5174802F02CFCA36ADC0102D553
:102CDC00154802F026FC114CA26A100302D51348C9
:102CEC0002F01FFCA36A590302D5114802F019FC2B
:102CFC000A4CA26A920302D50E4802F012FCA36A97
:102D0C00DB0302D50C4802F00CFC044A936A6FEA10
:102D1C0003436FEA13439362002010BD00ED00E003
:102D2C00048300001D830000318300004C830000ED
:102D3C006B83000091830000AC83000070B5284DBC
:102D4C006B68C3F30802D11E064609293BD8DFE89D
:102D5C0001F0053436293A3A3A3A3A38214802F029
:102D6C00E0FBEC6A14F0020404D01F4802F0D9FB1B
:102D7C0000241CE0EB6A5B0019D51C4802F0D1FB67
:102D8C001B4B1B781BB10120FFF7FAFE0CE0194B13
:102D9C001B781BB10120FFF73DFF05E0164B1B888C
:102DAC009BB223B1FFF786FF0628044617D03146A5
:102DBC002046BDE8704000F0B7B80020E4E70020E2
:102DCC00E9E70E48D2E713F4F87F0D4B0D490E4896
:102DDC00A2F1100218BF194602F0A3FBC8E770BDA0
:102DEC0000ED00E0068400001E840000408400001A
:102DFC0028ED00E029ED00E02AED00E06084000001
:102E0C00ED830000D883000097840000024A5369C8
:102E1C0043F010035361704700ED00E043B2002B08
:102E2C0008DB012200F01F0002FA00F05B09024AE5
:102E3C0042F82300704700BF00E100E043B2002BD2
:102E4C000DDB01225B0900F01F0002FA00F02033B9
:102E5C00034A42F82300BFF34F8FBFF36F8F7047C5
:102E6C0000E100E043B2002BA8BF03F1604301F185
:102E7C0001014FEA4111AEBF03F5614300F00F00B1
:102E8C00034BC9B2ACBF83F800131954704700BF91
:102E9C0014ED00E02DE9F0418C18884617461E46CB
:102EAC0004220A9B0999054603F010FFA4F12003A4
:102EBC000C4923F00703002221F00101C5E913227C
:102ECC00C5E916879961069959600799996008991F
:102EDC00D9604FF080711E60D961AB646A66BDE841
:102EEC00F08100BF1B520000014910220A6070479C
:102EFC0010ED00E0404080F3118830BF704700BFF8
:102F0C00404080F31188DFF81CC0DCF800C01CF4D2
:102F1C00006C0CBFEFF30880EFF3098001B5FFF7ED
:102F2C000DFF01BD04ED00E038B504460D46052843
:102F3C001AD8DFE800F00319191315170D4802F021
:102F4C00F0FA01F073FDAA6901460B4802F0E9FAA8
:102F5C0029462046BDE8384000F018B80748EEE78F
:102F6C000748ECE70748EAE70146074802F0D9FAB8
:102F7C00E7E700BFAB84000049850000CB8400006C
:102F8C00F18400000B85000026850000052810B593
:102F9C000CD001F0A1FD60B101F09EFD0C490D4B70
:102FAC00002808BF19460C4802F0BBFAFFF7A2FF35
:102FBC00FCE701F0A1FD0028EED1084C0848A168FF
:102FCC0002F0AFFAA068BDE8104000F00BB800BFEB
:102FDC0085850000898500009A850000B8060020D0
:102FEC00BA85000038B505464FF02003EFF3118485
:102FFC0083F31188BFF36F8F03F049FE0A4B9B6874
:10300C00AB420BD1094B5A68C2F3080212B92046E5
:10301C00FFF75EFD5A6842F080525A602046BDE8C8
:10302C00384003F08CBD00BFB806002000ED00E076
:10303C0001B572B60B4A106A00281EBF002111623E
:10304C0003F03BFD62B6EFF30580A0F110004FEAF0
:10305C00C0000549014409C99847BDE8014003482F
:10306C0000470000B8060020C86E0000A92A000026
:10307C0002F014FB202080F3118808484FF4006103
:10308C00401880F30988EFF314800221084380F381
:10309C001488BFF36F8F00F007F80000B01C0020FD
:1030AC0030BFFFF7FDBF00BF08B5084B084A23F03F
:1030BC007F039360BFF34F8FBFF36F8F01F064F802
:1030CC0001F06CF8FFF7F8FC01F09AF80000000032
:1030DC0000ED00E01FB5084B0193084B0293084B21
:1030EC00039301AB0093074A074B0121684600F09C
:1030FC0091F805B05DF804FB000000200000000012
:10310C0000000B060000002000000120F0B5204F4D
:10311C0000268E4201DB1046F0BD50F826C0DCF8CC
:10312C00044094B35BB104F1FF3E14EA0E0F1AD1C4
:10313C001F2C18D9DCF800501EEA050F13D1202CD7
:10314C00DCF80050DCF808C0D2B20FD9B4F1004F53
:10315C000ED8013CB4FA84F4C4F11F046400072AAD
:10316C004CEA040406D96FF01502D4E70824F6E7FC
:10317C003E24F4E725F01F05154345F0100544F0F7
:10318C000104BA60FD6001323C610136C1E700BF49
:10319C0090ED00E0034B05225A60BFF34F8FBFF355
:1031AC006F8F704790ED00E0BFF35F8F014B0022F3
:1031BC005A60704790ED00E013490868082810B574
:1031CC001ED8FFF7F1FF114C49680022904201F123
:1031DC000C0105D10E4B1870FFF7DCFF002010BD61
:1031EC00A26051F80C3C23F01F03134343F010036F
:1031FC00E36051F8043C43F0010323610132E5E73D
:10320C004FF0FF30EBE700BFB870000090ED00E02E
:10321C006B07002010B5034C01232278FFF776FFD3
:10322C00207010BD6B07002008B5084A00231278E7
:10323C00FFF76CFF10F1160F03D0054B0022072887
:10324C0000DD08BD98601A610130F8E76B070020BB
:10325C0090ED00E02DE9F04FCFB0CDE90E011E4608
:10326C000023934603935D4615F8010B48B12528BE
:10327C007ED0DDE90E319847013006D14FF0FF3397
:10328C00039303984FB0BDE8F08F039B0196013375
:10329C000393AB46019EE6E7232C61D056D8002C55
:1032AC00EFD0202C079B08BF012307935D46AB464C
:1032BC00BC481BF8014B214603F089F90028EBD1DF
:1032CC002A2C5DD156F8043B0293002BBEBF5B4207
:1032DC00029301239BF80040B8BF0D9305F1020B3C
:1032EC00029BC92B28BFC82302932E2C6DD19BF8AF
:1032FC0000302A2B66D156F8045B0BF1010B5B46B0
:10330C00C92D13F8014BA8BF4FF0FF359B46214642
:10331C00A54803F05CF928B15B46204613F8012B55
:10332C009B461446672C00F38780652C80F2E7805F
:10333C00472C4DDC452C80F2E280002CA1D0252CB2
:10334C0000F02483C82C40F32B8397E72D2C0AD054
:10335C00302C0BD02B2C0C9B08BF01230C93A5E716
:10336C004FF00109A2E701230D939FE706949DE717
:10337C0000232021CDE90613CDE90C33994696E7BD
:10338C00A4F13003092B0290AFD80A22AB461BF8EC
:10339C00010BA0F13003092B0446A1D8029B02FBC0
:1033AC000300A0F1300302935D46EFE700FB053507
:1033BC00303D93465A4612F8013BA3F130010929DE
:1033CC00F4D99CE700250A20F4E74FF0FF359EE77F
:1033DC00632C78D03BDC582CB4D1331D6F2C01936B
:1033EC00316840F0A082B9F1000F00F08D823023DB
:1033FC008DF86C30002940F093820135069B8DF8D6
:10340C006D1018BF20230F460693029B4B4540F3CB
:10341C00ED820D9B1BAC002B00F0C4822023029A82
:10342C0004F8093009F101094A45F8D1DDE9023205
:10343C0013441BAC1D46D5E2702C00F0468227DCF1
:10344C006E2C00F03382C8DC692C7FF47BAF3468BF
:10345C00331D002C019343DA2D238DF86C3061421F
:10346C000DF16D0A2B460A22504603F053F90C9BC2
:10347C00079A504453EA02070DF16C0AA0EB0A00BC
:10348C0000D1E70F0135069B18BF202306937DE082
:10349C00752CA2D0782CA0D0732C7FF453AF33466C
:1034AC004FF0000953F8041B019311F80930002B5D
:1034BC0000F01C8209F10109B9F1C80FF5D1002DFA
:1034CC0080F216821BE232464FF0010952F8043B9F
:1034DC008DF86C30002301928DF86D30002794E745
:1034EC000C9B23B12B238DF86C302146B8E7079B3E
:1034FC000BB12023F7E721460DF16C0AB2E7073632
:10350C0026F007063346716853F8080B0193CB027B
:10351C0043EA5053C20223F0004308920993DDE9B9
:10352C000823C1F30A58CDE916230B4640F2FF716C
:10353C008845024645D10028DDE9081273F10003E5
:10354C00BBBF2D238DF86C301BAB0DF16D030A4303
:10355C00A4F1410403F1030028D1192C1BD84922F2
:10356C001A704E225A7046229A700DF16C0A002283
:10357C00DA70A0EB0A000C9B079A53EA020705D1FC
:10358C009DF86C70A7F12D035F425F41C8283FF78F
:10359C0075AE814639E769221A706E225A7066221E
:1035AC00E2E700BFDF850000E5850000192C99BF1C
:1035BC004E2241216E22612194BF1A701A705970EB
:1035CC00D2E70899099E48EA010140461091C117BB
:1035DC0031431191DDE91001462C08BF66240143EB
:1035EC0040D00898002A46F0004173F10003A8F27D
:1035FC00FE38CDE9160137DA2D238DF86C300DF13C
:10360C006D07002618F1020F3BDBB8F1000F74DCDC
:10361C0016A808F1010803F0A4F8B8F1040FF7D1CB
:10362C00002D24F02003B8BF0625472B40F08A80DC
:10363C00B9F1000F40F0838015F1000818BF4FF06E
:10364C000108F21C02DB6B1C9E427FDD672C0CBF59
:10365C006524452405F1010A10239A451593A8BF4A
:10366C009A467BE04FF000080C9B0BB12B23C4E770
:10367C00079B0BB12023C0E71BAFC2E716A803F0D2
:10368C0070F8DDE916EC0023CDF828C00B93DDE9CA
:10369C000A23BD480021994208BF904208F1010855
:1036AC00ECD30520AEFB0023CDE90423059B00FBE6
:1036BC000C330593DDE90423CDE91623013E4FF0CD
:1036CC00000C0598002100236FF000428B4208BFCC
:1036DC00824207D2BCF1000F94D0DDE90423CDE97E
:1036EC0016238FE7049BDB180493059B5B41059322
:1036FC0008F1FF384FF0010CE3E716A803F043F88C
:10370C00DDE916AE08F1FF3801364FF0000C00234E
:10371C0000216FF00040994208BF704506D2BCF101
:10372C00000F3FF472AFCDE916AE6EE71AEB0A0A42
:10373C004EEB0E0E08F1FF384FF0010CE7E74FF09F
:10374C0000087EE7662C4FF0000883D116EB050AC3
:10375C0040D51023159366244FF0000A00224FF039
:10376C000063CDE918231AF1FF3A35D2169B189A4B
:10377C0019999B18179A41EB0202CDE9163202F007
:10378C007043129300231393DDE91223134306D0E5
:10379C0016A802F0F8FF16A802F0E3FF0136662C1B
:1037AC0007F1010236D1002E1DDD07EB060A15A923
:1037BC0016A803F014F807F8010BBA45F7D1002648
:1037CC0059EA050903D02E230AF8013BA946D14436
:1037DC00302512E066243FE718A802F0D4FF18A8A1
:1037EC0002F0BFFFBFE730233B709246E8E70AF1D7
:1037FC00010A46B10AF8015C0136D145F7D1B8F19E
:10380C00000F29D14BE015A916A802F0E8FF0AF821
:10381C00010CF2E715A916A8049202F0E0FF30287B
:10382C0018BF06F1FF3659EA05093870049A03D01F
:10383C002E23BA1C7B70A94602EB090A07E015A9D6
:10384C0016A8049202F0CBFF049A02F8010B524521
:10385C00F5D1B8F1000F07D053461AF8012D302AD4
:10386C00FAD02E2A18BF9A4624F02003452B16D1E5
:10387C00002EBABF76422D232B230A228AF8013060
:10388C0096FBF2F302FB136603F1300130368AF833
:10389C0000408AF802108AF803600AF1040A002337
:1038AC001BA88AF80030AAEB000064E632466C28AC
:1038BC0052F8043B0192039A05D07A2803D0682869
:1038CC0001D11A80E6E41A60E4E4304647F630038E
:1038DC0050F8041BADF86C300190082310220DF148
:1038EC006E0002F017FF02300027CBE5002D02DB43
:1038FC00A945A8BFA946B9F1000F3FF4CBAC4A4685
:10390C001BA802F0BBFEE9E50DF16C0A50462B46F4
:10391C00082202F0FFFE1BAEAAEB060A5044E3E7B6
:10392C000DF16D0AF2E7752C05D12B460A221BA866
:10393C0002F0F0FED8E7B9F1000F1BD047F63003C8
:10394C00ADF86C300DF16E062B461022304602F0AD
:10395C00E1FE582C03D11BAA12F8013B63B90DF1FF
:10396C006C0AB9F1000FA6EB0A0A504414BF0227E7
:10397C00002787E51BAEE7E7A3F1610119299CBF7E
:10398C00203B02F8013CE7E7323333330F990E9BAF
:10399C002046984701303FF471AC039B01330393ED
:1039AC00019677E4029BA3EB0905601909F101026A
:1039BC00214602F04CFE069B202B08BF00273D44FD
:1039CC00AF42BFF633AD069B3B550137F8E70F9975
:1039DC0014F8010B0E9B984701303FF44FAC039B3E
:1039EC0001330393039BAB42F1D153E4CDF8089020
:1039FC001CE500BF014B1860704700BF2C2700204E
:103A0C0008B5094B1A786AB90121197006200521ED
:103A1C00FFF728FA0620FFF701FA044B4FF000429B
:103A2C00C3F80423002008BD6C0700200060004090
:103A3C002DE9F7434B4F3D68012D66D14A4A9368F7
:103A4C001268DC69D2F80880D3E902120A40D3E983
:103A5C000510014322EA0102D8F800101B69D1F8C5
:103A6C0010155C404C4022EA04042E464FF000092D
:103A7C00002A39D13A603B680093009B3B4E0023EF
:103A8C0001279C46D6F8042307FA03F1114214D0FF
:103A9C009A0002F1804202F5C242116801290CD150
:103AAC0003F5A27056F82000C2F800C0126801920B
:103ABC00C0F304208140019A0C430133082BE1D15F
:103ACC002CBB012D0DD1284B9C681B689E68D4E93A
:103ADC0002321A40D4E905310B4322EA03020027D3
:103AEC003ABB03B0BDE8F08332420AD098F80430F8
:103AFC0009F01F00002140EA431002F08AFE22EA7E
:103B0C00060209F101097600B2E70024B6E7164F68
:103B1C00BB6819680029D4D00E688B681C4203D08E
:103B2C004B68224638469847002ECAD03146366834
:103B3C00F3E7154212D0E169236996F804C04B40B3
:103B4C00FB4013F0010F07F01F000CBF03210221F3
:103B5C0040EA4C1002F05DFE22EA050201376D00CE
:103B6C00BEE700BF7C610040AC2700200060004035
:103B7C0073B5036886689B6801F01F040D464E49B7
:103B8C001B79D1F8042344EA4314D2B2002303F581
:103B9C00A27051F82000C0F30420844270D122FAA4
:103BAC0003F0C0076CD59A0002F1804202F5C042C6
:103BBC00D2F8100520F00100C2F81005012202FA1B
:103BCC0003F3C1F808332046002102F022FEB0684E
:103BDC00E84010F0010051D0F068E84010F001000E
:103BEC004CD07069E84010F0010255D0B369EB403D
:103BFC00DB0749D43369F269EB4022FA05F503F08F
:103C0C00010305F00105AB4214BF012502252A4E24
:103C1C00002101F5A27356F8230010F0030035D1F2
:103C2C008B0003F1804303F5C0432402D3F8102525
:103C3C0022F4473222F44072C3F81025D3F8102531
:103C4C0004F4F85444EA0545154301F1400292008E
:103C5C0092B202F1804202F5C042C3F810551060D6
:103C6C0012680192019AD3F8102542F00102C3F8B0
:103C7C001025012303FA01F1C6F8041302B070BD3C
:103C8C000133082B83D19EE70325C0E701310829B6
:103C9C00BFD16FF01200F1E7F16933694B4023FAA1
:103CAC0005F515F0010F20460CBF0321022102F08F
:103CBC00B0FD1046E2E700BF00600040054B1B68FA
:103CCC002BB9054B1878003018BF01207047012024
:103CDC00704700BF1C2100406D070020034B186883
:103CEC0018B1D3F85C03C3F85C037047242100407F
:103CFC00024B0422C3F80423704700BF002000408D
:103D0C00024B0422C3F80823704700BF0020004078
:103D1C00024B1868003018BF012070470821004082
:103D2C00024B4FF40072C3F804237047002000408C
:103D3C00024B4FF40072C3F8082370470020004078
:103D4C00024B1960024B1A60704700BFD805002067
:103D5C00DC050020034B1B6813B1034A106818479D
:103D6C00704700BFD8050020DC050020034B8022E3
:103D7C00C3F808230122DA6002F09EBE0020004046
:103D8C0008B502F098FE0D4B01221A608022C3F890
:103D9C00FC224FF02002EFF3118382F31188BFF362
:103DAC006F8F074A12781AB1064A0421C2F8001123
:103DBC0083F31188BFF36F8F08BD00BF082000404C
:103DCC006D07002000E100E030B54B79012B20D1CC
:103DDC008B79032B1DD1CC792CB1012C19D1036813
:103DEC009B681B78ABB10A7912B1022A11D10E2251
:103DFC000B6847F61225AB425FD027D8B3F5965F18
:103E0C005ED012D8B3F5167F5CD005D8B3F5967F8B
:103E1C005BD06FF022004FE0B3F5966F58D0B3F53E
:103E2C00166FF6D14FF41D233BE0B3F5615F52D012
:103E3C0004D8B3F5165FECD1304B32E0B3F5964FA6
:103E4C004CD0B3F5E14FE4D12D4B2AE0B3F5E13F73
:103E5C0046D011D84DF6C025AB4243D004D8B3F5AB
:103E6C00164FD6D1274B1CE0B3F5614F3DD0B3F5BF
:103E7C00963FCED1244B14E0B3F5E12F37D008D8C0
:103E8C00B3F5613F35D0214DAB42C2D14FF08063C9
:103E9C0007E0B3F5612F2ED01D4DAB42B9D14FF0D9
:103EAC0080531C4D2243C5F82435C5F86C25836816
:103EBC0003C983E80300002030BD4FF40003F0E792
:103ECC00154BEEE74FF41C33EBE74FF4A033E8E768
:103EDC004FF49E23E5E74FF46C13E2E70F4BE0E75A
:103EEC000F4BDEE74FF46503DBE70E4BD9E70E4BC8
:103EFC00D7E70E4BD5E70E4BD3E700BF005027009A
:103F0C0000F0750000509D0000903A0190D0030025
:103F1C0040420F000020004000B0130000A04E00F3
:103F2C0000E0D70100F0EB0000705F0700B0AF03BA
:103F3C0000D0BE0E08B50C4BD3F8042312F0800F42
:103F4C001A4605D1D2F8040310F0040006D108BDBE
:103F5C00FFF7B4FE0028F5D00120F8E7034B1868F2
:103F6C00003018BF0120F2E700200040082100407B
:103F7C004FF0A04337B51C4C4022C3F80825032151
:103F8C0000220825C3F81817C3F82027C4F81455C5
:103F9C000625C4F80C552025C3F80855C3F814178A
:103FAC00C3F81C270523C4F808350723C4F81035BB
:103FBC008168FFF709FF054690B90423C4F8003562
:103FCC000A4B18601B680193019B094B012121606E
:103FDC00024602201970FEF745FF0220FEF71EFF75
:103FEC00284603B030BD00BF00200040082100402F
:103FFC006D070020F7B50023094C0A4F1E46D8B2B6
:10400C00151A002D02DD256801330DB903B0F0BD82
:10401C00266025680195019DD7F818550D54EEE7DB
:10402C00082100400020004007B50B4A0023136014
:10403C0012680192019A094A1370094B01221A6005
:10404C00C3F81415FFF73AFE0028FBD0054B0122EC
:10405C001A6003B05DF804FB1C2100406D070020C2
:10406C00082000400C200040084B1A6882B052B166
:10407C00002018601B680193019B054BD3F8183581
:10408C000B7002B070474FF0FF30FAE70821004088
:10409C00002000402DE9F3410D4E0E4FDFF8388023
:1040AC000024E5B2531B002B03DDFFF707FE0134A0
:1040BC0018B9284602B0BDE8F0810023336030689F
:1040CC00019001983B704B5DC8F81C35E9E700BFC7
:1040DC001C2100406D07002000200040094B70B5EA
:1040EC0053F820400130002653F82050A54200D848
:1040FC0070BD236820465B68984700B166600C343D
:10410C00F4E700BFB0740000104B70B5104C0546BE
:10411C001E469C4204D10E4CB44209D1002412E03C
:10412C0062681AB122681268AA420CD00C34F0E70B
:10413C0063680BB90C34EFE723682846196802F062
:10414C005BFA0028F6D1204670BD00BFB8270020CE
:10415C004027002008B50B4D4FF02002EFF31183E0
:10416C0082F31188BFF36F8F02F0CEFD012102287C
:10417C000446D8BF084602F0D7FD2C62FEF7BAFE03
:10418C00EAE700BFB80600200248034A0021121AD1
:10419C0002F09EBA000000207007002008B5064807
:1041AC00064A0749121A02F069FA064A06490748F4
:1041BC00BDE8084002F062BAB02600208C2800202E
:1041CC003C860000000000003C860000000000203F
:1041DC0008B50220FFF782FF074801F0A2F903207F
:1041EC00FFF77CFF00F0FEFCFCF7A6F9034A137BFB
:1041FC0023F00103137308BDEA8500004C06002070
:10420C0080B53F4BA2B083F308883E4C3E4E6369A9
:10421C0043F4007363610025E02384F82230E577D2
:10422C0025766576A576636A43F4E0236362FEF730
:10423C00EDFDFEF759FE4FF0FF33A362E36207ABCF
:10424C0029466C22184602F043FA0127B060284632
:10425C008DF82970FFF742FF3846FFF73FFF2B4CD4
:10426C0000F06EFB2A4B74624FF48062CDE904734C
:10427C00CDE90255CDE90055264B2749204600F0E3
:10428C0067FC637B23F0040213F01B0F627335464B
:10429C0004D1A36913B9204600F0B2F91F4B204E8C
:1042AC00059301220F23CDE9033200234FF4A072B2
:1042BC001C4900933046CDE901331B4B00F048FC00
:1042CC00737BEE6023F004037373184BC5E906335C
:1042DC00FEF700FF0D48AC6002F04AF90D4B144A92
:1042EC00184682F3098863B64FF0000181F31188F8
:1042FC00BFF36F8F00210022002300F088FF00BF66
:10430C00B024002000ED00E0B80600204C06002090
:10431C0031860000DD410000701700203686000059
:10432C00E0050020701B002061410000D006002039
:10433C00701B002070B50D4634498B68DA7B013A4E
:10434C000446DA73C26808464AB1A36889688B428E
:10435C0012D09DB900F038F96FF00F050AE08B68A8
:10436C0093F90E30236101328368E260A36000F0A0
:10437C002BF90025284670BD2369F3E791F90E103F
:10438C0093F90E309942A8BF194621EAE1714FF01A
:10439C002003EFF3118683F31188BFF36F8FA068AE
:1043AC0090F90E30994201DA00F07EFA2B46224643
:1043BC003146174800F036FA054610B900F004F9FA
:1043CC00D8E7236821699C4207D033B193F90E30AA
:1043DC009942A8BF194621EAE1714FF02003EFF38F
:1043EC00118583F31188BFF36F8FA06890F90E309D
:1043FC00994201D000F058FA85F31188BFF36F8F02
:10440C0000F0E2F86FF00A05B4E700BFB806002030
:10441C006E0700201E4B9A68D37B013B70B5044697
:10442C00D373C368012B05D0013BC360BDE870405A
:10443C0000F0CAB84FF02003EFF3118683F3118814
:10444C00BFF36F8F0169806890F90E30994201D0EB
:10445C0000F02AFA204602F0E1FB0546A06080B18C
:10446C00437BDB0603D183690BB900F0C9F886F3F3
:10447C001188BFF36F8F0023AB6695F90E30236163
:10448C00D4E7E06086F31188BFF36F8FCEE700BFEF
:10449C00B806002008B5FEF7CDFA054B054A1B6897
:1044AC001844106100211846BDE8084002F03CBCDD
:1044BC00F0060020B8060020EFF305800D2809D87F
:1044CC0028B1054B586880F40060C0F3C02080F020
:1044DC00010070470120FAE700ED00E0F8B50D4649
:1044EC004FF02003EFF3118483F31188BFF36F8F28
:1044FC000D4E0E4B4FF400410027C1FB006700220C
:10450C001A6130464FF47A3200233946FBF7E0FD4E
:10451C00074B1860074B1D60FFF7BCFF84F3118835
:10452C00BFF36F8FF8BD00BFFFE70300B806002094
:10453C00F0060020EC0600204FF02003EFF3118171
:10454C0083F31188BFF36F8F044B9A68D37B013BC5
:10455C00D37381F31188BFF36F8F7047B8060020B7
:10456C00094B03F12802824205D19B688B4202D190
:10457C004B7BDB0606D1D1E9003213605A60002375
:10458C00C1E90033704700BFB806002038B50D4CA8
:10459C00024604F1280002F00AFB054600B9E56862
:1045AC00A3684AB95A7BD20606D1AA6922B9DA891C
:1045BC007F2A01D9636238BD9D4201D0FFF76AFFA3
:1045CC006562F8E7B806002010B54FF02003EFF352
:1045DC00118483F31188BFF36F8F084B9A68D37BD8
:1045EC000133D3730120FFF7D1FF84F31188BFF39C
:1045FC006F8FBDE8104002F0B2BA00BFB8060020C1
:10460C00F8B54FF02003EFF3118483F31188BFF357
:10461C006F8F154A114651F8283F8B421DD0E3B1DC
:10462C00D66A90F90E5093F90E70AF4210DD5A68AD
:10463C00C0E9003210605860437B43F04003437381
:10464C000020FFF7A3FF84F31188BFF36F8FF8BD31
:10465C00B34202D01B68002BE5D1D36A4360D36A06
:10466C0001601860D062E7E7B8060020F8B5044690
:10467C004FF02003EFF3118783F31188BFF36F8F93
:10468C00194D05F1280601463046FFF769FFAB6A64
:10469C00B3422A4620D0FBB1E86A94F90E1093F984
:1046AC000E508D4213DD5968C4E900310C605C601A
:1046BC00637B906843F040036373031B584258417B
:1046CC00FFF764FF87F31188BFF36F8FF8BD834248
:1046DC0002D01B68002BE2D1D36A6360D36A2660D8
:1046EC001C60D462E4E700BFB80600201449154AE8
:1046FC008B6810B51468A34203D1BDE81040FFF7D6
:10470C00C9BE00241460104A1268BAB1DA897F2A33
:10471C0014D80E4A93F90E40126894420EDB0C4AE0
:10472C00126893420AD09A6942B90A69824203DC40
:10473C001846FFF79BFFE0E7121A0A6110BD00BF95
:10474C00B8060020E8060020F0060020EC06002049
:10475C00C874000038B504464FF02003EFF3118500
:10476C0083F31188BFF36F8F437B5A0607D501463D
:10477C000948FFF7F5FE637B23F040036373074B97
:10478C009868031B58425841FFF700FF85F31188C6
:10479C00BFF36F8F38BD00BFE0060020B8060020C5
:1047AC0070B504460D461646FFF7D4FF637B43F005
:1047BC00020363737DB12B68A5609D4226D02BB399
:1047CC0094F90E2093F90E10914219DD5A68C4E940
:1047DC00003214605C60731C1FD010484FF400450D
:1047EC0000214FF47A32C5FB06010023FBF770FC65
:1047FC000B49421C04F11800BDE8704000F098BA57
:10480C0069688B4202D01B68002BDBD16B6863603C
:10481C006B6825601C606C60DDE770BDFFE7030012
:10482C00C76B000010B50C461146064A9068064A44
:10483C0010601A46FFF7B4FF2046BDE81040FEF7A3
:10484C0047B900BFB8060020E8060020F8B5461CA2
:10485C0002F084FA34184FF02003EFF3118783F33E
:10486C001188BFF36F8F0D4D0D4BA8681860FFF7C3
:10487C0071FFA8680B493246183000F059FAAA6843
:10488C00537B43F0100353733846FEF721F902F0C3
:10489C0065FA201A20EAE070F8BD00BFB8060020C7
:1048AC00E8060020C76B00002DE9F84304464FF0E2
:1048BC002003EFF3118983F31188BFF36F8F02F09C
:1048CC0004F94EB28046002834D01C4D05F128075F
:1048DC0021463846FFF744FEAB6AA673BB422A4614
:1048EC0021D003B3E96A93F90E00B04216DD5A6881
:1048FC00C4E9003214605C600120FFF747FE89F3C5
:10490C001188BFF36F8FB8F1000F15D00B4B9B685C
:10491C00DB7B8BB9BDE8F84302F021B9994202D098
:10492C001B68002BDFD1D36A6360D36A27601C60DD
:10493C00D462E1E7A673E2E7BDE8F883B80600208D
:10494C00044B002103F12802C3E90A220846FFF7B1
:10495C00C5BD00BFB8060020F8B5224C224BA2689A
:10496C001B689A4225D04FF02003EFF3118683F396
:10497C001188BFF36F8F04F12805A1682846FFF753
:10498C00EFFDA36AA268AB4224D01BB3E16A92F993
:10499C000E0093F90E70874217DD5968C2E9003199
:1049AC000A605A600120FFF7F1FD86F31188BFF30E
:1049BC006F8F4FF02003EFF3118083F31188BFF357
:1049CC006F8FBDE8F840FEF783B8994202D01B68A0
:1049DC00002BDED1E36A5360E36A15601A60E26271
:1049EC00E0E700BFB8060020C874000038B50E4CD4
:1049FC004FF400410025C1FB004520464FF47A32AC
:104A0C0000232946FBF764FB044648B9FFF7A4FFD3
:104A1C004FF47A7284FB0223D00940EA436038BD1C
:104A2C00FFF714FF0446F3E7FFE70300014B986818
:104A3C00704700BFB806002070B504464FF0200345
:104A4C00EFF3118683F31188BFF36F8F02F0E6F852
:104A5C00054670B1437BDB0603D183690BB9FFF7C5
:104A6C00CFFD0023AB6631460848BDE8704002F02C
:104A7C0057B8D4E902329A4218BF0133A36002211D
:104A8C0004F1100002F0FDF9EDE700BF6E07002005
:104A9C0010B402460B464FF02000EFF3118180F367
:104AAC001188BFF36F8F946844B1013C946081F31B
:104ABC001188BFF36F8F002010BC704733B981F39E
:104ACC001188BFF36F8F6FF00F00F5E7014810BC32
:104ADC00FFF7A8BE6E070020EFF305800D2807D85E
:104AEC0038B1044B586880F40060C0F3C0207047A4
:104AFC000120704700ED00E0024B9B68187B00F032
:104B0C0001007047B806002010B502464FF0200394
:104B1C00EFF3118483F31188BFF36F8F437B590735
:104B2C0004D484F31188BFF36F8F10BD23F00403FA
:104B3C00437302F0A0F810B11046FFF761FD214657
:104B4C000248BDE8104001F0EBBF00BF6E0700202B
:104B5C0030B587B004460E9D04950D9D03950C9DB4
:104B6C0002950B9D01950A9D0095FEF793F9034B59
:104B7C009B6803B11B6E236607B030BDB8060020DE
:104B8C0070B586B0002605960E9E04960D9E039673
:104B9C000C9E02960B9E0F9D01960A9E0096044653
:104BAC00FFF7D6FF6B1C03D02DB92046FFF7ACFFE7
:104BBC00204606B070BD09484FF4004600214FF462
:104BCC007A320023C6FB0501FBF782FA0449421C2A
:104BDC0004F1180000F0ACF8EAE700BFFFE70300AF
:104BEC00C76B00002DE9F04F284E294D87B0B04619
:104BFC00B54205F130040FD3FFF79EFC244C254E33
:104C0C00DFF894A04FF400490027444521D307B0A6
:104C1C00BDE8F04FFFF7D8BC54F8043C059354F8AA
:104C2C00103C049354F8143C039354F8183C02932E
:104C3C0054F81C3C019354F8203C009354E90A238B
:104C4C0054E90C01FFF784FF54F8303CDD64254631
:104C5C00CEE7616A4B1C04D0256821B92846FFF7C2
:104C6C0053FF3034D1E7B346BC46C9FB01BC4FF40B
:104C7C007A32002358466146FBF72AFA5146421C09
:104C8C0005F1180000F054F8EBE700BF18280020DD
:104C9C00B8270020FFE70300C76B000000487047EF
:104CAC0000630E01034B1B680BB9FDF7C3BE00205C
:104CBC00704700BFF4060020036840B1074A5268F1
:104CCC00904204D01BB19A6881680A449A60426889
:104CDC0013605A600023C0E9003370473827002066
:104CEC0038B5104B1B78002B0F4B1C6814BF4FF0C2
:104CFC00FF306FF000409C420AD04CB1A568FFF722
:104D0C00D1FF281A00280ADBA468FFF7CBFF201A72
:104D1C00064B1B6913B19842A8BF184638BD00203A
:104D2C00F6E700BF6E07002038270020B8060020E9
:104D3C0070B504461646C1604FF02003EFF31185A1
:104D4C0083F31188BFF36F8FFFF7ACFF184B1A6812
:104D5C00012EACBF801901309A42A06001D05E6870
:104D6C0032B95A6862605A68236014605C600AE069
:104D7C009068A168884215DD411A91605168C4E9B8
:104D8C0000210C6054601A689A4206D0944204D1F7
:104D9C00FFF7A6FF0021FDF713FE85F31188BFF383
:104DAC006F8F70BD091AB242A160DAD01268D7E7D2
:104DBC00382700202DE9F04B0446FFF797FC4FF005
:104DCC002003EFF3118583F31188BFF36F8F214E0E
:104DDC00214FDFF888903460B846D9F8004032682B
:104DEC004C45D7E900BC05D024B1A368934214DD2F
:104DFC009B1AA3601BEB02004CEBE2710024C8E988
:104E0C0000013460FFF76CFF2146FDF7D9FD85F3F7
:104E1C001188BFF36F8FBDE8F08B1BEB03004CEBDD
:104E2C00E371D31A33600023C7E90001A360204665
:104E3C00FFF742FF85F31188BFF36F8FE368984744
:104E4C004FF02003EFF3118583F31188BFF36F8FBD
:104E5C00C3E700BFF4060020000000203827002024
:104E6C002DE918484FF02003EFF3118483F31188D8
:104E7C00BFF36F8FFDF7DEFD074BD3E9002312EB79
:104E8C00000B43F1000C5846614684F31188BFF3C4
:104E9C006F8FBDE8188800BF0000002010B5447B60
:104EAC0061F30304817B447362F34101817300223B
:104EBC00C1688260024A0A40C0E9032310BD00BFEA
:104ECC00FF0F02002DE9F04F494B85B09B68009312
:104EDC000026012307468A4690468DF80430044686
:104EEC004FF0FF35B146564517DB4FF02003EFF37B
:104EFC00118683F31188BFF36F8F9DF8043003F094
:104F0C00FF04002B52D132462946384601F035FFBA
:104F1C0086F31188BFF36F8F54E04FF02003EFF34B
:104F2C00118B83F31188BFF36F8F637B03F00F0337
:104F3C00022B03D0042B04D0012B17D122699268C9
:104F4C0001E0226912688AB1E268C4F80890C2F3E1
:104F5C0004310B4363F31032E2608DF804908BF351
:104F6C001188BFF36F8F01361434BCE7B8F1000F12
:104F7C00F5D09DF80420002AF1D0022B07D0042B89
:104F8C000FD0012B09D16A462146206903E0206924
:104F9C006A462146103001F046FFC4F808D00135AE
:104FAC00DDE720696A4621460830F4E700238DF8D6
:104FBC000430B8F1000F09D186F31188BFF36F8F5D
:104FCC006FF00A04204605B0BDE8F08F02AA4346F4
:104FDC0031460848CDE90222FFF724FC04464FF085
:104FEC002003EFF3118683F31188BFF36F8F8AE7E9
:104FFC00B80600206F07002038B54FF02003EFF300
:10500C00118583F31188BFF36F8F0368C1609842D9
:10501C004FF00101816006D185F31188BFF36F8FCA
:10502C000024204638BDD3E90020026050600022E5
:10503C00C3E90022184601F0CAFE2946044602487C
:10504C0001F06EFDEDE700BF6F07002038B5074C8F
:10505C00074DAC4201D3002038BD04F114032046A7
:10506C00C4E9053300F089F81C34F2E71828002055
:10507C00182800207047900410B5144603D5012160
:10508C000020FBF719FA610403D501210846FBF750
:10509C0013FA220403D501210220FBF70DFAE303D6
:1050AC0005D501210320BDE81040FBF705BA10BD62
:1050BC00910310B5144603D501210020FBF710FA1B
:1050CC00220303D501210846FBF70AFA630205D532
:1050DC0001210220BDE81040FBF702BA10BD1103FC
:1050EC0010B5144603D501210846FBF70DFA6202F0
:1050FC0003D501210220FBF707FA230205D5012174
:10510C000320BDE81040FBF7FFB910BD436810B495
:10511C005C681346A4460A4610BC002160474368ED
:10512C0010B41C681346A4460A4610BC0021604704
:10513C0070B5C66890F90B000C254D43884206EB00
:10514C000504B8BF7459002A1046B8BF02F11F00FD
:10515C00401104EB8001196002F01F0070BD07B50F
:10516C0001ABFFF7E5FF019A012303FA00F0136886
:10517C000343136003B05DF804FB2DE9F843436867
:10518C000689056890F80AC05E43FF220446C27285
:10519C00354400204FF00C0E844505DC0025238996
:1051AC00AB4221DCBDE8F883D4F80C80B6FBF3F1FC
:1051BC000EFB00F708EB070202F104091F29C2E9F4
:1051CC00019906DCE0729B08033323F003030130E2
:1051DC00E2E711F11F0248BF01F13E02521148F8FB
:1051EC00075005EB8205EEE76268E36820686A43C6
:1051FC0081181E1D86509A684A609A682046116074
:10520C0099602A460021FFF7AAFF0135C7E708B5C8
:10521C000446084611461A46A047FFF707FCFDF75F
:10522C00E1FE0020704770B504460D464520A047AE
:10523C0029465220A047294623465220BDE87040FB
:10524C0018472DE9F04F8BB01C464FF00008531E49
:10525C0006460F4602934FF0FF3AC146002505E083
:10526C006DB9252800F04F813946B047029B13F8E1
:10527C00010F02930028F3D10BB0BDE8F08F642826
:10528C006ED01AD839280AD8312860D22D2800F0CF
:10529C00408130284CD0252807D139460BE05828BE
:1052AC0000F0BB80632800F02A8139462520B047E6
:1052BC00029B18783946B047D0E7702800F0A380DD
:1052CC0011D869284CD06C2805D1B8F16C0F2AD1B3
:1052DC004FF04C08CAE76828E7D1B8F1680F22D123
:1052EC004FF04808C2E7752871D018D87328DCD164
:1052FC0054F8045BAB465B461BF8010B002840F0EE
:10530C00FB80B9F1030F40F00A815D1BAAEB050588
:10531C00002DA3DD39462020B047013DF8E7782861
:10532C007BD07A28C1D1B8F1000FBED180469DE761
:10533C00BAF1000F0EDAB9F1000F00F0ED80A0F118
:10534C00300AB9F1000F08BF4FF002098EE7BAF12D
:10535C00000FF4DB0A2303FB0A0AAAF1300AF0E778
:10536C00B8F17A0F02D154F8045B1FE0B8F16C0F5E
:10537C00F9D0B8F14C0FF6D1073424F00704F4E857
:10538C00022312F10041069143F100010791DDE97E
:10539C0006BC00214FF0FF30614508BF584504D2D0
:1053AC0039463046FFF73FFF58E71546002D05DA22
:1053BC0039462D20B0476D420AF1FF3ACDF800A0D6
:1053CC004B462A4639463046FBF772FB46E7B8F1A6
:1053DC007A0F02D154F8042B11E0B8F16C0FF9D00C
:1053EC00B8F14C0FF6D1073424F00704F4E802238B
:1053FC0000214FF0FF30994208BF9042D0D3CDF836
:10540C0000A04B46DEE739463020B04739467820BD
:10541C00B0474FF0080A4FF00109029B1B78702B24
:10542C0004D154F8043B049300230DE0B8F16C0F45
:10543C00F7D0B8F14C0FF4D1073424F007031C4615
:10544C005B6854F8082B04920021102203910591FB
:10545C004FF0400BABF1040B0498CBF1200CABF1EB
:10546C00200120FA0BF003FA0CFC40EA0C0023FAA2
:10547C0001F1084310F00F0008D1059911B9BBF1E7
:10548C00000F24D1302105E00595E3E709288CBFF6
:10549C0057213021084440B2394608930592B04751
:1054AC00039B059A01330393089BBBF1000FEBD1CF
:1054BC00B9F1030F7FF4D2AE039BC3EB4A05002D69
:1054CC007FF7CCAE39462020B047013DF7E7511E9F
:1054DC009245089107DBB9F1010F06D109933946C2
:1054EC003020B047099B089AB4E7B9F1020FFAD102
:1054FC00099339462020F4E73946B047FBE6394694
:10550C0054F8040BD7E6A846A9464FF0FF3A0125FC
:10551C00ACE64FF00309A9E64FF00109A6E60546F3
:10552C00A4E60FB407B504A951F8040B0191FBF7DD
:10553C0011FB03B05DF804EB04B070470369D0E9CC
:10554C000020824296BF9B1802F1FF3303F1FF3318
:10555C00181A7047036870B584680669A342A6EBF5
:10556C00040598BF9B19013B9542A3EB040328BF8C
:10557C001546AB42426928BF2B4622441C44A64226
:10558C0098BFA41B0A608460184670BD10B5044611
:10559C00FFF7D4FF884209D3636819442369994201
:1055AC0028BFC91AC4E90111002010BD6FF0150005
:1055BC00FBE72DE9F34180460F461646002532469F
:1055CC0001A94046FFF7C6FF39460446024601983A
:1055DC0001F054F8361B2544274401D0002CEED1A1
:1055EC0029464046FFF7D2FF284602B0BDE8F081BD
:1055FC00F0B5D0E903364468A34295BFF71803F120
:10560C00FF3507F1FF372D1B98BF3D1B741E641B24
:10561C00F51AAA4228BF2A46A24228BF224644694C
:10562C001C4413449E4298BF9B1B0C60C3601046E5
:10563C00F0BD38B505690446FFF780FF6B1E181ADC
:10564C00884208D3236819448D4298BF491B2160B6
:10565C00E160002038BD6FF01500FBE72DE9F34148
:10566C0080460F4616460025324601A94046FFF7F4
:10567C00BFFF019904460246384600F0FFFF361B77
:10568C002544274401D0002CEED129464046FFF793
:10569C00D0FF284602B0BDE8F0817047FBF7C4BAD2
:1056AC000B0704D5A0F14103192B98BF203070478C
:1056BC002DE9F04F87B08A4614460293054618B977
:1056CC00012007B0BDE8F08F0029F9D0029B002B18
:1056DC0000F0148104F004030A460493A846214602
:1056EC0018F8010BFFF7DCFFC0B23F28064617780D
:1056FC0022D00ADCC0B12A2835D0214638460132E6
:10570C00FFF7CEFF86421ED0DAE75B287AD05C2802
:10571C00F3D1E307F1D46878FFF7C2FFC6B2002ECD
:10572C00EBD005F10208E8E7E40601D52F2FC8D02D
:10573C00381C18BF0120C4E7002FC1D02F2F04D173
:10574C00A107BDD401324546C8E72E2FFAD1049BE0
:10575C00002BF7D05245B3D0A307F3D512F8013C78
:10576C002F2BEFD1ACE76878FFF79AFFC1B22A294B
:10577C0018D02E2F09D1049B3BB15245A0D0A707BE
:10578C0003D512F8013C2F2B9AD079B914F00200F2
:10579C0097D0E60600F1B4802F21104600F017FFD9
:1057AC000030C6E7214618F8010FDDE72F2901D19B
:1057BC00A50720D4029B15465F1E24F0040904F0B3
:1057CC00020AAB4621469BF80000FFF769FFC6B200
:1057DC000135002E3FF474AF3B464A4659464046CD
:1057EC00FFF766FF01287FF46CAF2F2EE9D1BAF1D9
:1057FC00000FE6D064E7104600F0E9FE02460028F0
:10580C00A1D15DE7002F3FF45BAF2F2F02D1A00792
:10581C003FF556AF21463846FFF742FF0090B8F1EE
:10582C00000F3FF44DAF6B78212B01D05E2B26D1AE
:10583C00023501230193012304EA03014FF0000B0D
:10584C0003912E46214616F8010B0593FFF728FF0E
:10585C005FFA80F9B9F15D0F059B13D12BBB019B4E
:10586C005B453FF42DAF002E3FF42AAF711C03D1E2
:10587C005B2F7FF425AF46460132B04663E74546C1
:10588C000023D7E7B9F12F0FF2D0B9F15C0F08D193
:10589C00039B53B921466878FFF702FFAE1C5FFAF1
:1058AC0080F9B9F1000F3FF40BAF33782D2B1ED1DB
:1058BC0021467078FFF7F4FEC0B2C0B15D2816D057
:1058CC005C2806F1020509D1039B3BB9B078FFF7C0
:1058DC00E7FEC0B2F51C00283FF4F2AE009B4B452E
:1058EC0003DB8342D8BF4FF0010B0023A9E7009BD9
:1058FC0035464B4508BF4FF0010BF6E70320E0E6B9
:10590C000846DEE64023FFF7D3BE08B510B100F021
:10591C006CFE80B208BD0EB403B503AA52F8041B8A
:10592C000192FCF781F902B05DF804EB03B070470B
:10593C0010B50446FCF74CFC2046BDE81040FCF7C3
:10594C00D7BB836802221A71002283F838209A860A
:10595C005A86FCF70FBB8B6820B903F51770002132
:10596C00FFF74ABB03F52370F9E70CB437B50446CF
:10597C0080680D4600F53B704FF0FF31FEF7DAFC06
:10598C00A368D3F858321A0602D4204600F0E2FA83
:10599C0007AB069A01932946204600F02AFBA36820
:1059AC00D3F858321B0602D42046FCF7E3FA6069A0
:1059BC0000F00AF8A06800F53B70FEF72BFD03B071
:1059CC00BDE8304002B07047026983681268016814
:1059DC0010B50446C0689847236900221A6010BDB0
:1059EC0038B5CB681B7C022B05460C4604D10A2823
:1059FC0002D10D20FFF7F4FF236922681B68D554F0
:105A0C0022691368013313606268934202D1204605
:105A1C00FFF7DAFF002038BD202805D0093804280C
:105A2C008CBF0020012070470120704708B510B1D1
:105A3C0000F0DBFD80B208BD10B5037B44891A442D
:105A4C001944B2FBF4F0B1FBF4F304FB102004FB9B
:105A5C001313C01A10BD10B5037B44891A441944A2
:105A6C00B2FBF4F0B1FBF4F1401A10BD30B5047B7D
:105A7C0045892144B1FBF5F305FB131101310133C9
:105A8C00224401808380B2FBF5F3591C05FB1323E0
:105A9C000133C180438030BD2DE9F84F0025064607
:105AAC000F46144698460560207840B1FFF7B4FFC6
:105ABC0060B1002304F8013B33684345F4D33368E9
:105ACC00002247F823202846BDE8F88F33685A1C7B
