:100000009046002051690000F1AA010069680000D3
:10001000696800006968000069680000696800009C
:1000200069680000696800006968000029670000CD
:100030006968000069680000D1660000DFAA01005D
:1000400011690000A7C101001169000011690000D9
:1000500011690000116900001169000011690000B8
:1000600011690000116900001169000011690000A8
:100070001169000011690000116900001169000098
:100080001169000011690000116900001169000088
:100090001169000011690000116900001169000078
:1000A0001169000011690000116900001169000068
:1000B0001169000011690000116900001169000058
:1000C0001169000011690000116900001169000048
:0C00D000116900001169000011690000B6
:0400DC00FFFFFFFF24
:1000E0007BB972B90029BEBF00204FF0004106E085
:1000F00008BF00281CBF6FF000414FF0FF3000F038
:1001000057B8ADF1080C6DE904CE002909DB002BCE
:100110001ADB00F04FF8DDF804E0DDE9022304B05B
:100120007047404261EB4101002B1BDB00F042F8BD
:10013000DDF804E0DDE9022304B0404261EB410157
:10014000524263EB43037047524263EB430300F0B8
:1001500031F8DDF804E0DDE9022304B0404261EB50
:1001600041017047524263EB430300F023F8DDF88E
:1001700004E0DDE9022304B0524263EB430370471D
:1001800053B94AB9002908BF00281CBF4FF0FF31FE
:100190004FF0FF3000F00CB8ADF1080C6DE904CE63
:1001A00000F008F8DDF804E0DDE9022304B0704750
:1001B000704700BF2DE9F04F099F154604468E4653
:1001C0001E46002B40F0CC808A42B2FA82FC4CD909
:1001D000BCF1000F0BD0CCF1200801FA0CFE20FA84
:1001E00008F802FA0CF548EA0E0E00FA0CF44FEA91
:1001F00015491FFA85F8BEFBF9FA210C09FB1AE331
:100200000AFB08FB41EA03439B452AD9EB180AF194
:10021000FF3004D29B4502D9AAF102002B44A3EB84
:100220000B03A4B2B3FBF9F209FB123302FB08F88B
:1002300044EA0344A04516D92C1902F1FF3303D236
:10024000A04501D9931E2C44A4EB080443EA0040C6
:1002500027B124FA0CF400233C607B603146BDE8F2
:10026000F08F5046DBE71346EEE702B9FFDEBCF144
:10027000000F2ED18B1A01264FEA154EAAB2B3FBFE
:10028000FEF8210C0EFB183308FB02F941EA034388
:10029000994561D9EB1808F1FF3004D2994502D98C
:1002A000A8F102002B44A3EB0903A4B2B3FBFEF1B7
:1002B0000EFB11334A4344EA0344A2424ED92C199F
:1002C00001F1FF3303D2A24201D98B1E2C44A41AA0
:1002D000BCE7CCF1200E02FA0CF521FA0EF901FA76
:1002E0000CF320FA0EFE4EEA03034FEA154800FA1B
:1002F0000CF4B9FBF8F11FFA85FE08FB1192180CFB
:1003000001FB0EF640EA0242964221D9AA1801F1F9
:10031000FF3003D2964201D9881E2A44921B9BB219
:10032000B2FBF8F908FB192209FB0EFE43EA02436F
:100330009E450FD9EB1809F1FF3604D29E4502D92C
:10034000A9F102062B44A3EB0E0346EA004693E70D
:100350000846E3E74E46F6E74046A4E70B46B6E715
:100360008B4205D90FB1C7E900010026304675E779
:10037000B3FA83FCBCF1000F0FD18B4201D3824250
:1003800009D8841A61EB030E0120002F6AD0C7E957
:10039000004E002662E76046F7E7CCF1200E03FA34
:1003A0000CF322FA0EF521FA0EF41D4301FA0CF3B8
:1003B00020FA0EF10B434FEA154A00FA0CF6B4FB93
:1003C000FAF91FFA85F80AFB19401C0C09FB08F121
:1003D00044EA0044A14202FA0CF23FD92C1909F177
:1003E000FF3004D2A14202D9A9F102002C44641AC0
:1003F0009BB2B4FBFAF90AFB194409FB08F843EA7B
:10040000044188452CD9691809F1FF3304D2884585
:1004100002D9A9F10203294443EA0040A1EB0801F3
:10042000A0FB02894945C2464C4602D306D1464547
:1004300004D2B8EB020A69EB0504013897B1B6EBB8
:100440000A0361EB040606FA0EFE23FA0CF34EEAE9
:10045000030326FA0CF6C7E900369AE74846C6E7D2
:100460004B46D9E73E46F9E62DE9F04F91B002231D
:100470000F9330B910F060F80646304611B0BDE871
:10048000F08F3A4F97F8CC6016F001063D4601D048
:100490000C26F2E797F82C8097F8290027222D23C5
:1004A00012FB083897F87C3002FB03737D3300F0B1
:1004B00003000B9314F048FE97F8DA00840707EB6B
:1004C000080B2BD5324607F1DC01C0F3800014F095
:1004D000F1FEFF28814602D0304615F015F95A4644
:1004E0004946224814F074FE0B9A2048494614F0FD
:1004F0006FFE17F8083013F00E0F40F0ED806B6AB6
:10050000002BC5D10EF056FD824628B10EF05EFDDF
:1005100008BB50460EF054FD0726AEE717F808005A
:100520003146C0F380100CF043FD062201460BF16A
:1005300002001AF07DFB17F808003146C0F3801066
:100540000CF036FD0B9B01460622981C1AF070FB3E
:100550004FF0FF09CDE70C9011F0B8FA0C9B044660
:1005600030B918460EF038FDD3E700BF341900202B
:1005700000F11C020C924FF6FF728285826F12B955
:1005800000F17002826704F16C0204F16801A06F4F
:100590000D931BF0B4FBB84AC4F81CA14FF01B111B
:1005A000C4E91712B4F8642094F8401022F4EF6202
:1005B00022F0070242F4887242F00102A4F864209B
:1005C00094F83D2021F0030184F8401002F03F022E
:1005D000062162F07F02A4F8C41094F8DC1084F8BD
:1005E0003D20002262F3000184F8DC10A349C4F826
:1005F0000C1194F81011628621F0030184F8101197
:1006000094F87E10626321F01F0184F83F20C4E952
:1006100013226265A4F8C820A4F8CC20A4F8E8202E
:1006200084F8EA20C4F8082184F81B21A267A4F802
:100630007C20A4F8402184F87E1094F84211A4F89C
:10064000602121F0070184F8421194F86211A4F8A6
:10065000882162F3041184F8621194F88A1162F31C
:10066000820184F88A1111F051FBA4F8D60011F030
:1006700053FB8349A4F8D800D4F894010140C4F88E
:10068000941111F04FFB94F8981160F3020184F873
:10069000981111F04DFB0D9BC5F8D4300C9BC5F89B
:1006A000D0A06B6294F8981194F82030E461002295
:1006B00060F3061162F3C30162F3000384F898113A
:1006C000C4E96A22C4E96822C4F89C21C4E905226D
:1006D00084F8203013F0C6F995F8283085F8DB90BF
:1006E000C3F3420301210DF13B008DF83B301BF0B9
:1006F00032FB002800F0B28017F808400B9A9BF8F4
:100700000130527804F00F04022C00F1FF3176D151
:100710001033DB00584300F5AA70982301FB030057
:1007200095F820305749ED61002464F3000385F803
:10073000203031232B60C5E905444DA3D3E90023C4
:100740006C60AC60A0FB0101FFF71AFDE860B5F832
:10075000D8901BF027FC8246B9F1000F06D117F89C
:10076000084004F00F04631E5C425C4195F8283099
:10077000DFF82481EA6864F3000385F8283013F079
:100780000104414B04920FAFCDE90787CDE9053550
:100790004ED00020CDE900020321CDE902005346EE
:1007A00002220CF039FB39460EF074FD002855D1B9
:1007B00002220F92CDE90787344A0695CDE902005F
:1007C0004AF2D833CDE90402009301905346012246
:1007D00003210CF021FB39460EF05CFD00283DD1D1
:1007E00095F8CC3043F0010385F8CC3010F0E0FBF5
:1007F00000287FF442AE012014F074FC3DE6012C89
:1008000012D0D20080324CB9103302F52772DB00CF
:1008100002F19800184403F59A737FE7062CF3D091
:1008200010234FF4AA72F2E716234FF42D72EEE76D
:1008300017481FFA89F8A8FB0001912303FB081150
:100840000BA3D3E90023CDE90244FFF799FC5346FB
:10085000CDE90040022203212046BAE76B6A002B53
:100860003FF416AE0B480FF07DFC11E6AFF30080AD
:100870008D49FD1A0700000048014801FF410100B1
:100880000000FFFE00CA9A3B4DFF00000902010074
:10089000002AE7843419002089F2000000000000DB
:1008A0002DE918480446807DE28461F3C7109DF865
:1008B000101061F3C400A07509481FFA83FBABFB5D
:1008C0000001912303FB0B1103A3D3E90023FFF7DE
:1008D00057FCA062BDE818888D49FD1A070000008A
:1008E000002AE784000000002DE9F04B8EB00223BF
:1008F00004460B9390F8323090F848004A4EC0F30B
:10090000400003F0F90360F3861384F8323004F1F9
:1009100035010CF04DFB94F82030B4F84270E461DE
:10092000002565F30003A7FB060184F8203091231E
:1009300003FB0711C4E9055539A3D3E90023FFF7E9
:100940001FFC31232360636C65600933A0F1310221
:100950009342A56032BFE3606564E26007461BF026
:1009600021FB636AB0460546B3B9E168CDE90C33B3
:1009700031310DAB0CAA03201CF046F90D9959B189
:100980002A4827A3D3E90023A1FB0001FFF7F8FBC6
:100990000C9B20F07F40C518254BCDE906430DF197
:1009A0002C09244BCDF820900593E368049300268E
:1009B0000396B4F842B09123ABFB080103FB0B1183
:1009C00017A3D3E90023FFF7DBFB104619464FF4CA
:1009D0007A720023FFF7D4FB2B46CDE90170042285
:1009E0000321009630460CF017FA49460EF052FCEF
:1009F000054680B994F8483043F0010384F8483044
:100A00000FF08CFD044640B9022014F06BFB204629
:100A10000EB0BDE8F08B0C20FAE72846F8E700BFDF
:100A20008D49FD1A07000000002AE78400CA9A3B9E
:100A300089F20000E90D010070B5054600201E4650
:100A400010F0C4FA044600B390F8480094F832302D
:100A5000A4F8421066F3420084F848009DF81000A4
:100A600065F3C71360F3C4030B4884F8323095B2C2
:100A7000A5FB0001912303FB051105A3D3E9002386
:100A8000FFF77EFB6064002070BD0C20FCE700BF18
:100A90008D49FD1A07000000002AE78400000000CD
:100AA0002DE9F04F85B0044615F092FBC6B2002E3A
:100AB0003AD015F0A3FB5FFA80F915F025FC5FFA38
:100AC00080F815F02BFC5FFA80FB15F011FE5FFA41
:100AD00080FA15F0FBFDC7B215F0DEFBC5B215F0CC
:100AE00061FB15F02DFC15F007FC15F0F5FD15F078
:100AF000CBFB002E54D0B8F1000F1CD0A07D59467E
:100B0000C0F3C00014F0BEFF0746B9F1000F47D094
:100B1000A37D190718D5B8F1000F18D1384615F084
:100B200081F800283CD012E0FF273546B246B04697
:100B3000B146BB46D3E7BAF1000F03D0384615F0F3
:100B400015F8E1E7FF27E0E7B8F1000F1FD1002318
:100B500001208DF80F300EF027FC064638BBB44B51
:100B60001B685B070DD001234FF0000163F3070101
:100B7000B04AB14BB1489B1ADB0863F38F1118F0F0
:100B800055FD404080F311884FF0030002DF3946E5
:100B9000504615F083F80028D9D1A37D1A07D6D482
:100BA0002146A74815F028FA15F0EAFAE4E1A3680F
:100BB00000F1200813B3A37DC3F3C00098B196F8E9
:100BC000201011F00F0100F09380012916D196F842
:100BD00021300C2B12D10023009342463B46204685
:100BE0001BF015FC8AE0FF2F6FD0207EA0EB070CD6
:100BF000DCF1000040EB0C000028E0D196F820105A
:100C000011F00F0302D0062B40F0158296F8212038
:100C1000252A00F2BE8194F91620002A80F2B981BB
:100C2000A268002A40F0B581BAF1000F14BF39461E
:100C3000FF2128461BF06BFC0028B1D115F0ECFA1F
:100C40000378032262F30303037096F820300278DE
:100C5000C3F3801363F3C7120C234370054602707D
:100C6000384614F0F1FEE37D0146284613F0010FEB
:100C700010F8023B00F08381002900F0808143F0EE
:100C800040032B70062219F0D3FF062206F1220141
:100C900005F1080019F0CCFFA37D6A4843F0010379
:100CA000A375214615F0A8F9962015F059FB0020F0
:100CB00015F0B6FA284615F051FA15F07FFA00281B
:100CC00040F0F08015F040FC56E196F82020C3F388
:100CD0004013C2F3801293428ED1062206F1220104
:100CE00004F11F0019F07DFFB0FA80F0400983E79E
:100CF00096F8210025288CBF0020012000283FF411
:100D00007DAF04200EF050FB00283FF449AF15F0F2
:100D100023FCA36A05463BB9E28C40F2712353439E
:100D2000B0FBF3F203FB120523684748DB68072298
:100D3000A3FB000102FB03113BA3D3E90023FFF750
:100D40001FFAA0F24230A842FFF42AAF21463F48E2
:100D500015F052F915F07AFAD4F8088015F05CFA1B
:100D600096F820200378C2F3801262F3C71303F0D1
:100D7000D00343F025030370222343700546384611
:100D800014F062FEE37D0146284613F0010F10F8CF
:100D9000023B3CD0D9B343F040032B70062219F03C
:100DA00047FF062206F1220105F1080019F040FF75
:100DB000042208F1080105F10E0019F039FF0322A1
:100DC00008F10C0105F1120019F032FF01236B75D7
:100DD000B8F812B015F0C0FBD4F8109000F5DB6045
:100DE000B9F1000F34D040F2E24303FB0BF3B9F149
:100DF000000F69DB484567D840F2E243A9EB0000E9
:100E0000B0FBF3F06B7DE88201336B7525E0A27DCA
:100E1000C2F3801262F386132B70062204F11901CB
:100E2000BDE700BFAFF3008000CA9A3B000000009E
:100E300078D00020BCDA010024DB01008F1402000E
:100E4000E3C40100211201008D49FD1A6D14010057
:100E500085F8169085F817908146B8F812302B83E4
:100E6000B8F814306B83A38AAB8308F11C01052208
:100E700005F11E0019F0DCFE98F8222095F82330C9
:100E800062F3040385F823301BF05BFD95F82330F3
:100E900060F3471385F82330284615F05FF915F005
:100EA0008DF998B1654B1B685A073FF46AAE012370
:100EB0004FF0000163F30701614A624B62489B1ADD
:100EC000DB0863F38F115AE6994490E794F804B075
:100ED0004BF001031BF0010B237111D0574B1B6822
:100EE00059073FF44EAE01234FF0000163F30701B1
:100EF000534A544B55489B1ADB0863F38F113EE667
:100F00000EF06AFA0823804603714FF6FF7324221D
:100F1000C380294696F82060203019F089FE98F8A1
:100F20002030C8F80840C6F3401666F3451388F829
:100F3000203015F0BFFA5946C8F8100058461BF08B
:100F4000A1FEA9EB00005946C8F8140058461BF052
:100F500094FEBAF1000F08BFFF27C8F8180088F800
:100F60001D700EF039FA4146C8F80C00D8F80000A0
:100F70000EF048FA0EF056FA05B0BDE8F08FA27DEB
:100F8000C2F3801262F386132B70062204F119015A
:100F900079E611F00D0F01D0062B03D196F8212030
:100FA000252A34D9012B22D096F8203003F00F03E4
:100FB000042B7FF4F5AD96F82130252B3FF6F0ADEC
:100FC000A37DDB077FF5ECAD15F026F996F8203010
:100FD0000278C3F38013B3EBD21F7FF4E1AD062296
:100FE00006F12201083019F0FCFD80B1D8E596F831
:100FF00021300C2B7FF4D4AD0DF10F03009342464A
:101000003B46002120461BF002FA0028CCD096F87F
:101010002130002B3FF4C4ADA368002B7FF4C0AD9A
:10102000BAF1000F9DF80F2014BF3946FF21284662
:101030001BF06DFAB4E5022BAFE700BF78D00020BB
:10104000BCDA010024DB0100031402007B0F020064
:101050002DE9F04F858D4FF6FF739D428FB004460A
:101060000F46934617D1CA4B1B685F070DD001236B
:101070004FF0000163F30701C64AC74BC7489B1AEC
:10108000DB0863F38F1118F0D1FA404080F3118828
:101090004FF0030002DF90F8E92090F8E830934227
:1010A00040F0AF8090F84211CE0700F1AA8090F88E
:1010B000610194F86031984200F07A81B84E33684B
:1010C00013B19C4240F09D8094F8623103F0070315
:1010D000052B00F2D182DFE813F0060076002A012A
:1010E000940094009400AF48B4F83680B4F832907D
:1010F0001AF0B5FD0546002800F0838094F86231AF
:10110000042262F3020384F86231037943F003039B
:101110000371182343710F23C371B4F86431038141
:10112000B4F866314381B4F868318381B4F86A3128
:10113000C381C84400230374C3740375D8444FF0BB
:10114000FF3343758375C375037643768376C37621
:10115000037743778377A0F81180014620461BF080
:10116000FCF92268B4F8CA303460002AA4F8CC3004
:10117000C4F880710ADAD4E9011322F000428B42EC
:101180002CBFFB187B189B1AC4F880311335864B93
:10119000C4F87C510122022110469C600BF0D2F968
:1011A00078B37B4B1B6859073FF46FAF01234FF0B7
:1011B000000163F30701774A774B7C489B1ADB08F1
:1011C00063F38F115FE794F86351A5B375481AF084
:1011D00046FD0146A8B1037943F0030303711123CF
:1011E000C371032343710F23037294F86331437275
:1011F00020461BF0B2F994F8603184F86131002385
:10120000336094F8E82094F8E930D31A03F003032C
:10121000022B40F0A48294F8EA30013B072B00F245
:101220002B82DFE813F0EC016604B204C9052B063B
:1012300029027E06920694F93D30002B35DB94F8A6
:101240006231C4F8F850052161F3020394F86C117F
:1012500084F86231012384F8FC3019B3B4F86431A6
:10126000B3FBF1F3013313FB01F39BB2A4F8EE30AF
:10127000D4F86831C4F8F03094F8EC30022161F30E
:10128000010394F8621181F00801C1F3C00161F318
:10129000820384F8EC300123023A84F8EA3084F8BF
:1012A000E920AEE7B4F86631E0E73E481AF0D7FC33
:1012B00001460028A5D0037943F0030303711823E6
:1012C00043711023C371B4F864310381B4F86631FB
:1012D0004381B4F868318381B4F86A31C38194F8EA
:1012E0006C310374B4F86E31A0F81130B4F8703179
:1012F000A0F81330B4F87231A0F81530B4F8743196
:10130000A0F81730B4F87631A0F81930B4F8783175
:10131000A0F81B30B4F87A31A0F81D3020461BF03D
:101320001CF994F8603184F86131356069E78D0704
:101330003FF567AF0DF05AFF014600283FF461AF5B
:1013400094F86231032262F3020384F86231A38DC0
:10135000C3800223037190F82030134380F82030BB
:10136000182380F821300F2380F82330B4F864313B
:101370008384B4F86631C384B4F868310385B4F863
:101380006A31438500680DF009FF0DF011FF38E761
:1013900088D00020BCDA010044DB01003C160200CA
:1013A000B41F002034200020A4CE002058140200D6
:1013B00094F8881194F889318B4200F0888094F871
:1013C0008A3103F00303032B00F2568101A252F885
:1013D00023F000BFE5130000031200000312000019
:1013E00043140000AD481AF03AFC014600283FF4CF
:1013F00008AF94F88A31B4F88E51B4F89221A4F869
:10140000D6500120A4F8D82060F3010384F88A3173
:101410000B798D8143F003030B7109234B71142366
:10142000CB711B230B7200234B7248238B72C87243
:10143000CA8120461BF091F8B4F8CA30A4F8CC3029
:10144000DFE694F88A31B4F88C2184F889116FF3BF
:101450008203D4F8081184F88A3194460023A4F852
:101460005E20B4F89021A4F8CC30A4F86220C4F82F
:10147000083109B1086888B9894B1B685E073FF4D9
:1014800004AE01234FF0000163F30701854A864B48
:1014900086489B1ADB0863F38F11F4E502230B7176
:1014A00091F82030CD8043F0030381F820300923E8
:1014B00081F82130152381F82330B4F85C300B8596
:1014C000B4F86030A1F824C0CA844B855BE794F877
:1014D000941194F895318B423FF493AE94F8963181
:1014E00003F00300032800F2C78001A555F820F09F
:1014F0000115000003120000031200006515000032
:1015000066481AF0ACFB014600283FF47AAE94F826
:10151000962194F8983194F89751C2F3820060F3C1
:101520000203C2F3421262F30613C5F3400565F3EA
:10153000C30384F89831B4F8963123F4817323F00F
:10154000010343F4807343F00103A4F896310B794F
:10155000087243F003030B7103234B711623CB7105
:101560004A7266E784F89511C3F38201880734D57F
:10157000022161F3840384F8963194F89631590975
:101580008D0733D5022161F3471384F8963194F81F
:10159000961194F86430C1F3820003F0070383428C
:1015A00008BF002094F8EC3060F3840394F86500E1
:1015B000490900F00700884208BF002161F3471382
:1015C00094F89711DBB2C1F3800143F0010361F39A
:1015D000410384F8EC3008235EE6CE0701D50121F3
:1015E000C7E711F0040118BF0421C2E7C80701D5FD
:1015F0000121C8E711F0040118BF0421C3E72C4BF7
:10160000196801B91C60618EE68E0E4494F8EC10E6
:101610005E4411F00301B6B200F0AE80D4F8083198
:101620008BB11F4B1B685A073FF42FAD01234FF0BE
:10163000000163F307011B4A1B4B1E489B1ADB0882
:1016400063F38F111FE501200DF0B8FD80460028DF
:1016500000F0858011481AF002FB054600287ED074
:101660000DF0C4FD94F8EC30C4F8088103F00303D6
:10167000012B23D0022B7DD0094B1B685B073FF465
:1016800004AD01234FF0000163F30701054A064B47
:1016900009489B1ADB0863F38F11F4E4342000201F
:1016A00088D00020BCDA010044DB0100681602008B
:1016B000B41F0020C2160200F50D0200D04A94F8B3
:1016C000EC306FF3010384F8EC30238E1E442B7949
:1016D0000636B6B243F00303A4F8F4602B710C2372
:1016E0006B710023EB7194F8FC302B7240F2E241F5
:1016F000D4F8F830B3FBF1F3A5F80930B4F8EE30C4
:10170000A5F80B30B4F8F030A5F80D30B4F8F2308D
:10171000A5F80F302368A5F81160002BC4F80471F8
:101720000ADAD4E9011023F0004388422CBF3F18A5
:101730007F18FF1AC4F8047105F10903C4F80031D9
:10174000B04BC3E902420122022110460AF0FAFE20
:1017500000287FF426AD294620461AF0FEFE94F8B4
:10176000192194F818319A4240F0BA8400200FB041
:10177000BDE8F08FA44AA2E7B4F8F4000B90A6EB02
:1017800000081FFA88F818F4004FE8D184F8E9201F
:1017900094F8600194F86121824209D094F86221A2
:1017A00002F00702052A04BF84F86101A4F8CC10F6
:1017B0001A68D4F8081194424FF0000208BF1A606A
:1017C000C4F8082100293FF457AE086800283FF408
:1017D00053AEB4F8EE20E38DB4F8F0C0B4F8F25094
:1017E0009A4213D1238E634510D140F2E24303FBAA
:1017F00002FE42F2107303FB05E3013BB3FBFEF371
:10180000B4F8C6E09BB29E4500F0F080A38DCB807B
:101810000A230B71002381F820304A84A1F824C0E8
:10182000CD840DF0BBFC0DF0C3FC236862680C9204
:10183000002B08DAA06823F0004390422CBF3F1829
:10184000BF182360FF1AE38DB4F8EE50DFF8DC9187
:1018500013FB08F39BB2B3FBF5F11FFA81FA15FBFA
:101860000AF292B2934240F2E24080F0E180D31A51
:101870005843A0FB090160A3D3E90023FEF780FCD5
:1018800020F07F400744638E0C9A9B440B9B9E1B69
:1018900023689A4238BF1A4694F93D300C92564458
:1018A0005E44002B40F2E24B66860BFB05F580F2AE
:1018B000CC80E26C636C03FB1823E3641BF043F8F9
:1018C000064694F84000C0F3820012F09FF994F8A5
:1018D000FC2006440BFB02F262656E430022C4F852
:1018E000E42006F57426E26C484806F23F266B08B1
:1018F000B6FBF0F606FB0AF0963B02446664A3646E
:101900009A4294BFE264E364A0FB09013AA3D3E9DD
:101910000023FEF735FC3F1AD4F8F800B0FBFBF0CB
:101920000BFB00F034A3D3E90023A0FB0901FEF771
:1019300027FC20F07F430B93AE1BB4F8EE30B4F8D5
:10194000F220E38542F2107303FB0252B4F8F01068
:101950002F4B2186013AB2FBF5F2A4F8C6202D4A9E
:101960002B442A44B3FBF5F3B2FBF5F5A4F8CA30D7
:101970008A1DABB29342A4F8D230C2BF5B1A063BB9
:101980009BB2A4F8CE3094F8EC3013F0040308BFF7
:10199000A4F8C8300221012014F0ECFE002202213C
:1019A0000D9001200AF0A6FD204610F09BF80530AE
:1019B000C5B20094184B2A46012100200BF0BEFA54
:1019C00030F0020A50D0154B1B685A073FF45DAB4C
:1019D00001234FF0000163F30701114A114B124834
:1019E0009B1ADB0863F38F11FFF74DBB03230B71C9
:1019F00017E700BFAFF300808D49FD1A0700000014
:101A000013CC010094CE002015CC010040420F0001
:101A1000FF5962027FC3C901A918010088D00020C4
:101A2000BCDA010044DB0100E214020000CA9A3B68
:101A300005FB113189B24843DDA3D3E90023A0FBA4
:101A40000901FEF79DFB3F1A1DE7D4F8F800D8A363
:101A5000D3E90023A0FB0901FEF792FB20F07F40B1
:101A6000431C0B932E4668E7A6FB0989D0A3D3E954
:101A7000002340464946FEF783FBC74B20F07F46D4
:101A8000A6FB03BC0723B8EB0B0003FB06CC69EBFA
:101A90000C014FF47A720023FEF772FBE3680C9A94
:101AA00094F93DC0BD4908941A441346BC4A0196B6
:101AB00012EA2C0238BF0A46BA49CDE904320B9B20
:101AC0000093CDE90641CDE9020A3B462A460121B1
:101AD00050460BF0A1F930F002037FF474AF0D9B78
:101AE00023B10122022110460AF004FD6FF04700E5
:101AF0003DE6E38E618E0B449B4494F8EC301FFA74
:101B00008BFB13B3A8481AF0AAF8054600283FF447
:101B100026AE002384F8EC30238E9B4403790BF12E
:101B2000060B43F00303A4F8F2B0037108234371DA
:101B30000123C371052204F1ED01083019F078F892
:101B4000B4F8F230A5F80D3005E6B4F8F230ABEB9E
:101B5000030B1BF4004F7FF402AE04F1380584F848
:101B6000E92004F1ED010522284619F061F805216C
:101B700028461AF0F0F894F83D3060F3050384F835
:101B80003D30012384F8B031E9E594F8EC60002E93
:101B90007FF4E5AD84481AF062F8054600283FF46A
:101BA000DEAD94F93D30002B00F1040747DB04F172
:101BB0007F084346324604F1EE0104F24D101BF05B
:101BC0003BF81022414604F1A00019F031F804F16D
:101BD0009801082204F1B90019F02AF894F8973016
:101BE00084F88F6066F3000384F8973094F8B83077
:101BF00084F8906043F0010384F8B83094F87E30A4
:101C000084F8916043F0080384F8926084F893604C
:101C100084F8946084F8956084F89660C4E92C6632
:101C200084F87E30394620461AF0DFFC29462046EB
:101C30001AF093FC94F8E83084F8E9308FE594F8D2
:101C4000423103F00603022B00F0958094F8ED700A
:101C5000F7B1037943F00303037194F8DC30DB0739
:101C600011D5D4F80C315E070DD51123C3710323B0
:101C70000372477202236B716B7901336B7100231E
:101C800084F8ED30D2E70D23EB712F720123F2E7D8
:101C9000454819F0E4FF0646002800F04982037920
:101CA00043F0030303710D2343710423C3713F4BBE
:101CB00018684368D3F8049006F10808B9F1000FDA
:101CC00003D03B460C224146C8470822414604F156
:101CD000F60018F0ADFF042206F1100104F19C009B
:101CE00018F0A6FF3146204604F17F061AF035FCB5
:101CF0003346002204F1EE0104F24D101AF09CFF6D
:101D00001022314604F1A00018F092FF082204F1DD
:101D1000980104F1B90018F08BFF94F8972042F075
:101D2000010284F8972094F8B820002384F88F30BB
:101D300084F8903084F8913084F8923084F89330AD
:101D400084F8943084F8953084F89630C4E92C33C4
:101D500063F3000294F87E3084F8B82043F008035F
:101D600084F87E302B7943F003032B7101236B71D0
:101D70000523EB715AE7394620461AF036FC29460E
:101D800020461AF0EAFB94F8423123F0030384F86A
:101D900042314FE7AFF300808D49FD1AF94501004C
:101DA000A54201005118010034200020B81F002076
:101DB0008D49FD1A0700000094F8DC1011F00106AF
:101DC0002CD084F8E9200DF011FA054600283FF4E4
:101DD000C6ACA38DC3800223037190F8203043F07A
:101DE000030380F82030092380F8213080F8233065
:101DF00008220021243018F045FFD4F80C3185F872
:101E000024301A0A1B0C85F8252085F8263029462F
:101E100008680DF0C3F90DF0CBF9A0E4C74819F03C
:101E20001EFF054600283FF49AAC94F8E83084F889
:101E3000E930C34BC4F80C31037943F00303037159
:101E40000923437194F93D30002BACBF08230E23C6
:101E50000822C3713146104418F014FFD4F80C3135
:101E60002B721A0A1B0C6A72AB72294620461AF0B2
:101E700074FBB4F8CA30A4F8CC3070E494F8103194
:101E8000DD0724D4AD4819F0EAFE014600283FF4EE
:101E900066AC94F8E83084F8E93094F8103143F0F7
:101EA000010384F81031037943F00303037106231F
:101EB00043710C23C3710A2303726FF00E03437244
:101EC000052383724FF0FF33C3720373CEE7980785
:101ED0007FF5D2AB0DF08AF9014600283FF43FAC04
:101EE00094F8E83084F8E930A38DC38002230371AD
:101EF00090F8203043F0030380F82030062380F868
:101F000021300C2380F8233094F8113180F82430EC
:101F1000B4F81231A0F82530B4F81431A0F8273005
:101F200076E7864819F09BFE014600283FF417AC7F
:101F300094F8E83084F8E930037943F0030303713F
:101F4000012343711223C37190E7618EE38E94F8ED
:101F5000EC500B449B44E9071FFA8BFB62D5D4F885
:101F60000871002F7FF45DAB01200DF027F90646C4
:101F700000283FF4F4AB714819F071FE05460028C3
:101F80003FF4EDAB94F8EC3067F3000384F8EC30E9
:101F9000DBB2C3F3820757EA531738D194F8E8202D
:101FA00084F8E9209B07A4F8EE7019D50DF01EF90E
:101FB000A38DF38086F820700E23337194F864307B
:101FC0003068C3F3020386F8213094F86530C3F318
:101FD000020386F8223031460DF0E0F80DF0E8F803
:101FE0002B7943F003032B7105236B711823EB71DD
:101FF00094F8EC30C3F382032B7294F8EC30C3F303
:1020000042136B72B4F8EE306B81FFF7A4BB238EE2
:102010009B440BF1060BA4F8EEB00DF0E7F8C4F802
:102020000861DDE7B4F8EE30ABEB030B1BF4004FB7
:102030007FF495AB94F8643084F8E92015F01C0F18
:1020400018BFC5F3820203F007071CBF62F3020347
:1020500084F8643015F0E00F18BF94F8653094F8F8
:102060006560D4F808111EBF6A0962F3020384F8A0
:10207000653094F8983194F86420C3F3C00363F397
:10208000C302002306F0070684F86420C4F8083170
:1020900000293FF4F1A9086800283FF4EDA994F85D
:1020A000642094F86530C2F30202C3F30203AD0763
:1020B0005FFA82FE5FFA83FC03D4774501D166455F
:1020C0000BD0A58DCD800E250D71002581F82050F7
:1020D00081F8212081F822309BE603230B7198E6DA
:1020E000164819F0BCFD014680B194F8183184F807
:1020F0001931037943F00303037102234371C37160
:1021000094F81A31037220461AF027FAB4F8CC007A
:1021100000287FF42BABB4F8C630012B03D9A4F808
:10212000CC30FFF723BB0133A4F8CC30FFF71FBB43
:102130000249284619F0ACFDFFF711BB34200020FE
:10214000FF410100000000002DE9F04F97B09A46D2
:102150000E9013685046904600220D469A6050F843
:102160000C9B1E680AF108070322323118F060FD4B
:102170000AF11C04042205F12E01384618F058FD1E
:10218000052205F13E01204618F052FD05212046AA
:1021900019F0E1FD9AF8213060F305038AF8213047
:1021A00095F84330C3F304038AF822302C8FAAF841
:1021B000124095F83B2095F83A3043EA0223AAF8FA
:1021C0001430EB8EADF83C3095F843309AF824206B
:1021D0005B0963F384028AF824201AF0B4FB0A90A6
:1021E0009AF82400C0F3820011F010FD0A9BBAF89F
:1021F000141040F2E24B0BFB04F41844604300F56A
:102200007420C54B00F23F20B0FBF3F06308963B0F
:10221000CAF82C3095F83530CAF828000BFB03F3C8
:10222000CAF83C30AB8FADF82C30BDF82C2042F210
:10223000107303FB0243013BB84AB3FBF4F3A9F864
:10224000C630B74B881D23442244B3FBF4F3B2FBE2
:10225000F4F2A9F8CA3093B28342A9F8D230C2BFCF
:102260005B1A063B9BB23946A9F8CE30042209F12D
:10227000E00018F0DDFC98F8153095F820700A930E
:10228000062205F1280114A818F0D2FC95F8203098
:10229000C3F380138DF8403005F12203194606225E
:1022A00012A8119318F0C4FC95F82020C7F3C017AA
:1022B000C2F340134FF480728DF830302A84DBB2C1
:1022C00085F82F70062214A905F130000D9318F03F
:1022D000AFFC0A9BFF2B05F1290B05F1230700F04A
:1022E000FD80119B0A9819463A4612F051FE95F866
:1022F0002230023385F82230062212A9584618F0FF
:1023000097FCBAF81230EB86BAF814302B87BDF878
:102310002C306B879AF82430C3F3820385F83C3065
:1023200048460FF0DFFBD8F80470AAF810002946E1
:10233000E8800E980CF032FFBAF81030FB800D23C5
:102340003B710D9B3868002B00F0D5809AF809206E
:102350009AF808309AF80B1043EA02239AF80A20F8
:1023600042EA01229AF82110534041F04001AAF8B4
:1023700022308AF82110012387F8203039460CF0EA
:102380000DFF0CF015FFD8F810B0664F0025312373
:102390000BF25240C9E90035C9F808505CA3D3E9F3
:1023A0000023A0FB0701FDF7EBFEDAF82830BDF8AB
:1023B0003C20E41AD8F80C30A3F5AE73A3EB0B0B5A
:1023C00040F2E24303FB023320F07F405B44C9F854
:1023D0000C00022101200A9314F0CCF92A460221B4
:1023E0000B9001200AF086F830460EF083F8821C2C
:1023F0004D4B0096D2B2012128460AF09FFD31468E
:1024000011F026FF96F82830DA0706D5012200954C
:102410002B46114628460AF091FD48460FF062FB14
:10242000A4FB07453AA3D3E90023064629462046E4
:10243000FDF7A6FED8F80830A3F131084FF48B73EE
:1024400008933A4BCDE90693394B0593D9F80C30F4
:102450000493384B20F07F49A9FB03BC072303FBFF
:1024600009CCB4EB0B0065EB0C014FF0000A4FF404
:102470007A720023CDF80CA0FDF782FE0A9924A3FE
:10248000D3E90023CDE90190A1FB0701FDF778FE18
:10249000053620F07F40F6B20090434632460121D7
:1024A00050460AF0B9FC30F0020327D0224B1B68DB
:1024B0005B070DD001234FF0000163F307011F4AB2
:1024C0001F4B20489B1ADB0863F38F1117F0AEF8FF
:1024D000404080F311884FF0030002DF0622002104
:1024E000584618F0CFFB9DF8403085F82230062280
:1024F00012A9384603E79DF830303DE70B9B23B126
:1025000001220221104609F0F5FF17B0BDE8F08F57
:102510008D49FD1A0700000040420F007FC3C9012A
:10252000FF59620200CA9A3B514201000942010070
:10253000A54201008D49FD1A94D00020BCDA0100AB
:102540005CDB0100E21402002DE9F8438946D0E982
:102550000B71466B164D8C193034A742904612A36E
:10256000D3E9002315D8A1FB0501FDF709FE20F0F2
:102570007F40C9F80000E01B0BA3D3E90023A0FBB8
:102580000501FDF7FDFD20F07F40C8F80000BDE823
:10259000F883A7FB0501FDF7F3FD20F07F40C9F8A4
:1025A000000006F13000E7E78D49FD1A0700000042
:1025B00000CA9A3B000000002DE9F04F1E46136848
:1025C00091F820B01F6835684FF0000A95B0C3F845
:1025D00008A0537D0C9301F122030C460E9019467E
:1025E000904610A806220B9318F022FB062204F155
:1025F000280112A818F01CFB94F82090A4F820A041
:10260000CBF3801BC9F340195FFA89F384F82FB02C
:10261000062210A904F130000D9318F009FB0C9A62
:10262000FF2A04F1290304F1230B00F0DE80DDE929
:102630000B105A460F9312F0ABFC94F822200F9B1C
:10264000023284F8222012A90622184618F0F0FA65
:10265000738AE386B38A23873B8E63871AF071F906
:1026600084F83C0028460FF03DFAD8F804A03082E8
:102670002146E0800E980CF091FD338AAAF80630CE
:102680000D238AF804300D9BDAF80000002B00F0CF
:10269000BC80727A337AF17A43EA0223B27A42EA50
:1026A000012296F821105340738441F04001012328
:1026B00086F821108AF8203051460CF06FFD0CF09E
:1026C00077FDD8F810B0DFF884A1002431230BF295
:1026D0005240C5E90034AC6053A3D3E90023A0FB0A
:1026E0000A01FDF74DFD738A40F2E2465E43D8F8D9
:1026F0000C3020F07F40A3F58773E86002210120B1
:10270000A3EB0B0B14F036F8224602210B900120AC
:1027100009F0F0FE38460EF037FC021DD2B20092EE
:10272000434B012120460AF009FC234603220121E4
:10273000009420460AF002FC28460FF0D3F9D8F89E
:102740000830A3F1310940F242230893394BCDE917
:102750000653394B0593EB6886FB0A6705305FFA31
:1027600080F8CDE9034330462FA3D3E9002339464F
:10277000FDF706FD104619464FF47A720023FDF767
:10278000FFFC29A3D3E90023029039463046FDF728
:10279000F7FC25A3D3E900230190ABFB0A01FDF769
:1027A000EFFC20F07F4000904B464246012120463E
:1027B0000AF032FB30F002032AD0204B1B685B0783
:1027C0000DD001234FF0000163F307011C4A1D4B9C
:1027D0001D489B1ADB0863F38F1116F027FF40405A
:1027E00080F311884FF0030002DF0622514618469D
:1027F00018F048FA97F83230C3F3401384F82230C7
:10280000062207F13B01584620E78AF8209053E75B
:102810000B9B23B101220221104609F06BFE15B07B
:10282000BDE8F08FAFF300808D49FD1A070000006E
:10283000E3CA0100B1450100F94501008CD0002038
:10284000BCDA01004CDB0100E214020000CA9A3B32
:1028500038B50F4D0024284600F09CFB031F022BC7
:102860000FD9A0F11803022B0DD9A0F12C03022BD4
:102870000BD94038022898BF0324204600F010FDF1
:10288000E9E70024F9E70124F7E70224F5E700BFB0
:10289000A001002038B55368084A1C78002123465F
:1028A000054617F078FA2046012100F00DFD284674
:1028B000034A002117F06FFA002038BD14E601002A
:1028C00036E60100900410B5144606D5124816F0FD
:1028D00089FC0021084616F0CFF8610406D50F48A0
:1028E00016F080FC0121002016F0C6F8220406D55F
:1028F0000B4816F077FC0221002016F0BDF8E30328
:1029000008D5084816F06EFC03210020BDE81040F1
:1029100016F0B2B810BD00BF20E7010041E701008A
:1029200061E7010082E70100900310B5144606D567
:10293000124816F057FC0021012016F09DF86103A3
:1029400006D50F4816F04EFC0121084616F094F803
:10295000220306D50B4816F045FC0221012016F093
:102960008BF8E30208D5084816F03CFC032101204F
:10297000BDE8104016F080B810BD00BFA9E7010007
:10298000CBE70100ECE701000EE8010038B50F4D80
:102990000F4A0021044617F0FEF90021284600F0F6
:1029A0003FFC41F288301AF0AEFD0A4A2046002171
:1029B00017F0F1F90121284600F032FC2046064AC2
:1029C000002117F0E8F9002038BD00BF10010020F9
:1029D0004CE6010076E6010099E6010038B5154D98
:1029E000154A0021044617F0D6F90021284600F0C8
:1029F00017FC4FF4FA701AF086FD012128460F4D9E
:102A000000F00EFC0E4A2046002117F0C4F9002108
:102A1000284600F005FC4FF4FA701AF074FD01210D
:102A2000284600F0FDFB2046064A002117F0B3F9C6
:102A3000002038BD30010020ABE60100200100205D
:102A4000D2E60100FBE6010038B504460D462148F8
:102A500016F0C8FB2946204800F0FAFC022C14D0DE
:102A6000032C23D0012C2AD121461C4800F0D8FB8E
:102A700021461B4800F0D4FB00211A4800F0D0FB8F
:102A80001948BDE8384015F086BF174815F094FF87
:102A90000021124800F0C4FB0121114800F0C0FBE6
:102AA00001211048BDE8384000F0BABB0E4815F0CF
:102AB00094FF0121094800F0B3FB0021EDE701215B
:102AC000064800F0ADFB0121054800F0A9FB0121FB
:102AD000D3E700BF09E70100840000203001002097
:102AE0002001002010010020980000202DE9F04175
:102AF000474F484C484D00F00FFC3B782070014692
:102B0000032B00F28280DFE803F0025C2446434896
:102B100016F068FB207815F07AFF10B101232B70B6
:102B200028E0207815F081FF48B13D4816F05AFBA7
:102B300002232B70237801333A4A13701AE020786D
:102B400015F087FF002860D003232B702378013B0A
:102B5000F2E7344E3448327816F044FB237830786C
:102B6000984212D115F053FF78B101232B702F4BEF
:102B700002221A70287821783870FFF765FF2178D3
:102B80002B48BDE8F04116F02DBB02232B702378B3
:102B900001333370EEE7234E2648327816F022FBDD
:102BA00023783078984207D115F031FF20B1012306
:102BB0002B7003221D4BDCE703232B702378013B92
:102BC000E7E71D48194E16F00DFB41F288301AF068
:102BD0009AFC2178022015F04FFF96F80080B8F19A
:102BE000020F09D1207815F020FF28B185F8008068
:102BF0000C4A13780133A0E73678032E05D12078EC
:102C000015F027FF08B12E70F2E7002387E700BF19
:102C1000B6260020B7260020B82600202FE80100A5
:102C200050E80100B926002065E80100BA2600201E
:102C3000EBE8010096E80100CAE8010037B52E4C28
:102C40002E482F4D1923009321461823022200F00D
:102C50001FF921460C230B222A4800F0EFF9042328
:102C600021460322284800F01DFC21461D2227484A
:102C700000F0F8FA21461E22254800F0F3FA21461A
:102C80001F22244800F0EEFA2B462146112222484A
:102C900000F056FA2B4621461222204800F050FA46
:102CA0002B46214613221E4800F04AFA2B461D4DA2
:102CB0001D482146142200F043FA2B4621460D22DE
:102CC0001A4800F03DFA2B4621460E22184800F023
:102CD00037FA2B4621460F22164800F031FA2146DA
:102CE0002B461022144800F02BFA0021084603B0AE
:102CF000BDE8304015F0C0BEA2E7010098000020FA
:102D000029290000A00100208400002030010020BB
:102D10002001002010010020580100204001002067
:102D200070010020C528000088010020C800002094
:102D3000B0000020E0000020F800002008B5036883
:102D40002BB9044816F04EFA4FF0FF3008BD0020B2
:102D5000FCE700BF6CE9010070B5054608460E4669
:102D600014F0B4FB28602846FFF7E8FF044658B982
:102D7000C5E90160C5E90300A882A8753146044889
:102D800016F030FA204670BD4FF0FF34FAE700BF6E
:102D9000FEE901002DE9F04104460F46164698462B
:102DA000FFF7CCFF054638BB069A26614146C4E9C9
:102DB0000287206815F0E6FD069A2068394615F06E
:102DC000E1FD069A2068314615F0DCFD227DA16800
:102DD000206815F0CEFD627DE168206815F0C9FD20
:102DE0002169A27D206815F0C4FD6168044816F0D1
:102DF000F9F92846BDE8F0814FF0FF35F9E700BF4B
:102E00008CE9010038B50546FFF798FF044620B964
:102E1000A96829B9074816F0E5F94FF0FF3407E033
:102E200001222A75286815F0A4FD034816F0DAF986
:102E3000204638BDC2E90100E1E9010038B5044689
:102E4000FFF77CFF054630B9E16809B123692BB96A
:102E50000C4816F0C7F94FF0FF3510E0627D20688E
:102E600015F087FDA27D2169206815F082FD617D46
:102E7000054816F0B7F9A17D044816F0B3F92846C5
:102E800038BD00BFC2E9010035EA010044EA010093
:102E9000F7B50C460546134817461E4616F0A2F92C
:102EA00021462846FFF758FF0446B8B90E4816F0E9
:102EB00099F901230093089A3B4631462846FFF7CB
:102EC00069FF044650B9094816F08CF92846FFF707
:102ED00099FF044610B9064816F084F9204603B05D
:102EE000F0BD00BF53EA010071EA01008EEA010063
:102EF000ACEA010008B503682BB9044816F072F972
:102F00004FF0FF3008BD0020FCE700BF6CE9010076
:102F100070B5054608460E4614F0D8FA28602846D3
:102F2000FFF7E8FF044640B9C5E90160E8603146B3
:102F3000034816F057F9204670BD4FF0FF34FAE70A
:102F400097EB01002DE9F84305460E4617469846D3
:102F5000FFF7D0FF0446B8B9286843683A46C5E988
:102F60000276D3F80090089B2146C847286843683A
:102F700021461F6832464346B8476968044816F040
:102F800031F92046BDE8F8834FF0FF34F9E700BF80
:102F90005FEB0100F7B50446FFF7ACFF054630B91B
:102FA000A3680BB1E16829B9214816F01BF94FF06D
:102FB000FF303AE00246206815F020FD14201AF098
:102FC000A2FA0122E168206815F018FD0C201AF021
:102FD0009AFA2A46E168206815F010FD2068A26878
:102FE000436800219D6801ABA847019B002BF5D0E9
:102FF00003F0CEF90F4E05462068A2684368002111
:103000009F6801ABB84703F0C3F9401BB04202D838
:10301000019B012BF0D0084BA0FB0334D80B40EAF6
:1030200044404EF29023B0FBF3F003B0F0BD00BF7C
:10303000D2EA01002054130000CA9A3BF7B50C46AF
:1030400005460E4816461F4616F0CCF8214628467F
:10305000FFF75EFF044670B9094816F0C3F8009404
:1030600001233A4631462846FFF76CFF044610B963
:10307000044816F0B7F8204603B0F0BDF1EA0100AD
:1030800018EB010037EB010008B503682BB90448C1
:1030900016F0A8F84FF0FF3008BD0020FCE700BF95
:1030A0006CE9010038B5044608460D4614F00EFAE6
:1030B00000232060256163612046FFF7E5FF044699
:1030C00028B92946034816F08DF8204638BD4FF040
:1030D000FF34FAE7F9EB01002DE9F04704460D460D
:1030E00092469846FFF7D0FF064620BB27462A4661
:1030F00057F8040B656143683146D3F80090534696
:10310000C84701222068C4F8088002FA05F3E3608A
:103110004368DB680BB139469847206843681B69F0
:1031200013B12A46002198472946044816F05AF858
:103130003046BDE8F0874FF0FF36F9E7D0EB0100ED
:10314000F8B504460F460C4815461E4616F04AF8D8
:1031500039462046FFF7A6FF084816F043F83346E5
:103160004FF4997229462046FFF7B6FF044816F03F
:1031700039F80020F8BD00BF2EEC01004AEC010038
:1031800065EC010008B503682BB9044816F02AF86D
:103190004FF0FF3008BD0020FCE700BF6CE90100E4
:1031A00038B5044608460D4614F090F90123237300
:1031B0000023C4E90005A3602046FFF7E3FF0446AF
:1031C00028B92946034816F00DF8204638BD4FF0BF
:1031D000FF34FAE7BAEC01002DE9F04106460D464E
:1031E0009046FFF7CFFF0446A8B93068B560436842
:1031F0002A461F6821464346B8473068436821463F
:103200005F68337B2A46B8472946044815F0EAFF31
:103210002046BDE8F0814FF0FF34F9E794EC01005F
:10322000F8B505460E46FFF7ADFF044620B9AA687B
:103230002AB90A4815F0D6FF4FF0FF340BE0286892
:103240002E73436821465F683346B8472A7BA968D6
:10325000034815F0C7FF2046F8BD00BFC2E90100D2
:10326000ECEC010070B504460E460A48154615F010
:10327000B9FF31462046FFF793FF074815F0B2FF2C
:10328000012229462046FFF7A7FF044815F0AAFFB0
:10329000002070BD0FED010028ED010040ED0100A0
:1032A00038B5074C05464FF0FF31204615F020F8A1
:1032B000044B20461D70BDE8384014F0EDBF00BF40
:1032C00024D10020BB26002070B5074C05460E46D1
:1032D00020464FF0FF3115F00BF8044B5E552046A9
:1032E000BDE8704014F0D8BF0CD10020BC260020EF
:1032F00070B5074C05460E4620464FF0FF3114F0DE
:10330000F7FF044B5E552046BDE8704014F0C4BF83
:103310003CD10020C026002038B5064C4FF0FF31CC
:10332000204614F0E5FF044B1D78204614F0B4FF4E
:10333000284638BD24D10020BB26002038B5074CD4
:103340004FF0FF310546204614F0D2FF044B5D5D7F
:10335000204614F0A1FF284638BD00BF0CD1002044
:10336000BC26002038B5074C4FF0FF3105462046FB
:1033700014F0BEFF044B5D5D204614F08DFF28461F
:1033800038BD00BF3CD10020C026002008B503682E
:103390002BB9044815F026FF4FF0FF3008BD002080
:1033A000FCE700BF6CED010038B5044608460D4649
:1033B00014F08CF820602046FFF7E8FF18B14FF0BA
:1033C000FF34204638BDC4E90150E0602046FFF7D5
:1033D000DDFF04460028F2D12946024815F002FF1D
:1033E000EFE700BFBBED01002DE9F84304460E46B0
:1033F00017469846FFF7CAFF054620BB2082206883
:1034000043683246D3F8009029464346C4E9026730
:10341000C847206843683A46D3F800902946434697
:10342000C847227C2068314615F040FB627C20684A
:10343000394615F03BFB3A463146044815F0D2FEBA
:103440002846BDE8F8834FF0FF35F9E78CED010021
:1034500070B504460E46FFF799FF054630B9A168DE
:1034600009B1E3682BB90D4815F0BCFE4FF0FF35EC
:1034700011E006F00102C6F3400322746374206871
:1034800015F014FBE168627C206815F00FFB3146F3
:10349000034815F0A7FE284670BD00BFC2E9010031
:1034A000F1ED0100F8B504460F460B4815461E46DF
:1034B00015F098FE39462046FFF776FF074815F0CD
:1034C00091FE0123324629462046FFF78DFF04482E
:1034D00015F088FE0020F8BD0EEE01002BEE010075
:1034E00047EE01001FB5044628B10146144815F007
:1034F00079FE04B010BD134815F074FE124B13484A
:103500001C6006F079FC06F071FB0923ADF8084059
:103510008DF80930A023ADF80A30F023ADF80C3057
:103520000B4900942346022202A817F0E2FD01464F
:1035300008B10848DBE7084815F054FED9E700BF9A
:103540006AEE01008AEE0100B001002078CA002076
:1035500014DD0100A1EE0100C6EE0100F0B591B04E
:103560000E4609A90446174607F040F8002803DA7A
:103570000023337011B0F0BD9DF82430002BF9D139
:10358000204617F049FE0378044606AD032B1FD8EA
:10359000DFE803F002181A1C1049284617F0D4FA85
:1035A000A379059562780492A2780392E278029258
:1035B00022790192627900923946094A304615F023
:1035C0001EFED7E70749E8E70749E6E70749E4E7CA
:1035D000074A0A21284615F012FEE1E7E8EE01004D
:1035E0000AEF0100EFEE0100F6EE010000EF01002E
:1035F000180F020030B589B00C461E2269460546F8
:10360000FFF7ACFF2246074C0748694615F0EAFD74
:103610002068A84203D117F0FCFD0023236009B005
:1036200030BD00BFB00100205AEF010030B589B0B5
:103630000C461E2269460546FFF790FF24B122463C
:103640006946084815F0CEFD074C0848694615F054
:10365000C9FD23681BB9284617F0D4FD206009B0C6
:1036600030BD00BF2DEF0100B00100204BEF010085
:1036700010B5054806F010F9044618B10146034894
:1036800015F0B0FD204610BDE53400006AEE0100E3
:103690000B6801330B60014B1B6818478CCA002074
:1036A0002DE9F04F85B09B460E9CDFF88890012CE9
:1036B000B8BF0124012B0CBF3023202316468246BD
:1036C0008846029301250A270022B6FBF9F30193ED
:1036D0000AB9B1451DD8019B414603F13000D047DE
:1036E00001350122019B013F012F09FB13664FF0B9
:1036F0000A03B9FBF3F9E8D1414606F13000D0479F
:10370000BBF1030F02D1641B002C0EDC05B0BDE839
:10371000F08FBC42E6DBBBF1020FE3D841460298D2
:1037200003920135D047039ADCE741462020D04779
:10373000013CE9E700CA9A3B014B1860704700BFA3
:103740008CCA002007B50023019302460B460348AC
:1037500001A915F0D7FB03B05DF804FB913600001A
:1037600030B585B0CDE901010446002501A9054821
:10377000039515F0C7FBDDE902309842B8BF255428
:1037800005B030BDDF8E01004FF02003EFF3118252
:1037900083F31188BFF36F8F06490123C1F84035C9
:1037A0004FF08041C1F8783582F31188BFF36F8FF5
:1037B0000020704700E0014020B1034B800143F03E
:1037C00001031847704700BFA0DC010030B50C4D65
:1037D0000C4987B000240E23CDE902434FF4407218
:1037E000094BCDE90444CDE90044284614F0F8FD26
:1037F0000649284619F0BAFE204607B030BD00BF82
:10380000E4010020D02D0020413D0000F5F2010030
:1038100038B500F017FB1348134C15F0E4FE1349BC
:1038200013480423282219F044FC124B124A1A6050
:103830004FF4004000F026FD1048114B1B1ADB0826
:1038400000210430994200D138BD10F8312025689C
:1038500002F0070225F007052A4344F8042B013142
:10386000F0E700BFC001002044D00020D05300206A
:10387000C801002090CA002025960100BCDA010092
:10388000ECDB0100F8B50F4BBFF35B8F002553E86D
:10389000007F43E80052002AF9D1BFF35B8F0A4C46
:1038A0000A4E361B3611B54200DBF8BD63685B7902
:1038B0002BB12368DB6813B13946204698470135A0
:1038C0001034F0E7B8010020ECDB0100FCDB010064
:1038D000064BBFF35B8F53E8002F013243E8002112
:1038E0000029F8D1BFF35B8F704700BFB8010020FB
:1038F000044A054B9B1AB1EBD30F34BF52F8310089
:1039000000207047BCDA0100ECDB01002DE9F04734
:10391000894616469846B8B9214B224FFF1A3F11E7
:10392000044605469A46BC4202DB2846BDE8F087BD
:103930000AEB0410434632464946FFF7E7FF85424B
:1039400038BF05460134EEE7174B184903EBC203B5
:103950001D7943681A79072302EB420203FA02F049
:10396000454551F8263028BF454623EA000305F0B7
:10397000070000FA02F213430020032223FA02F4A4
:1039800004F00704A04202F1030238BF20461E2AB9
:10399000F4D123F00703034341F82630C5E700BF05
:1039A000ECDB0100FCDB0100BCDA010044D00020AC
:1039B000114BC31A2DE9F0411B11174642680F4CF9
:1039C000013313710E4BE41A05460E46E4084FF01E
:1039D0000008A04507D16A68012316605371094A9F
:1039E0001370BDE8F08142463B4600212846FFF7B0
:1039F0008DFF08F10108ECE7ECDB0100ECDB0100D6
:103A0000BCDA0100C426002070B5114BBFF35B8FF8
:103A100053E8005F6A1C43E800210029F8D1BFF396
:103A20005B8F2DB90B4C0C4E361B3611B54200DBAB
:103A300070BD237B43B123685B6903B198470422BF
:103A400000212046FFF7B4FF01351034EEE700BF38
:103A5000BC010020ECDB0100FCDB0100436870B519
:103A600000245C71074D084BED1A0646ED08AC4288
:103A700000D170BD0023224619463046FFF746FFAD
:103A80000134F4E7ECDB0100BCDA010053B1436818
:103A90000749187900EB400351F82200D84000F0A4
:103AA00007007047034B03EBC2031879704700BF50
:103AB00044D00020BCDA0100164B984237B50446CA
:103AC00002D3154B98421FD3002201A9134813F0CB
:103AD0008BFE0546D8B90122019BBFF35B8F53E8EB
:103AE000001F43E800200028F9D1BFF35B8F019845
:103AF00021461F22043017F031F8019C7E2384F800
:103B0000233084F824500434204603B030BD044CE4
:103B1000FAE700BFA8D80100C41D0200C8010020B8
:103B20008BEF010048B1054B984205D3A033984272
:103B30002CBF00200120704700207047D053002088
:103B40002DE9F84F5D4B1B78044603B960B34FF085
:103B50002003EFF3118683F31188BFF36F8F58486A
:103B600015F051FD054686F31188BFF36F8F78B1CC
:103B7000BFF35B8F534B53E8002F013A43E800211A
:103B80000029F8D1BFF35B8F8CB1284615F02CFECD
:103B900024B94D4B1B680BB1FFF774FE484815F074
:103BA00030FD041C18BF01242046BDE8F88F474BA8
:103BB0001B78DBB92B7ADA0718D415F028FE81467A
:103BC000284615F0F1FD26462246CC4623464FF006
:103BD000010E1CF8011B09B1984210D83C4B3D4A1C
:103BE000DFF80CB19B1AC3F3C90AE6B93A4E3B4F52
:103BF000DFF80091BF1B3F114FF000085BE0252963
:103C000002D182F00102E4E7002AE2D041F020076D
:103C1000613F192FDDD8732904BF0EFA03F2164352
:103C200001330022D5E7B6FA86F7C7F11F073946F8
:103C3000284615F0BCFD2A4B9842024602D3294B78
:103C4000984218D31046FFF76DFFA0B9264B9A4251
:103C500011D0DBF800305B070DD028F03F0343F0B4
:103C6000010363F307086AF38F1843464A4639464F
:103C70001E4815F0FCFC012303FA07F726EA0706A5
:103C8000B3E773685A799AB168891B79A97A800970
:103C900003EB430259F82030D34001F0070103F051
:103CA0000703994204D8336829461B683046984771
:103CB00008F101081036B845E3DB66E7C4260020AA
:103CC000C0010020B4010020B8010020C52600205A
:103CD000ACDB0100BCDA0100ECDB0100FCDB010025
:103CE000A8D80100C41D02008BEF0100A9EF01005C
:103CF000BCD0002044D00020F8B50E4F3D7875B9F7
:103D00000D4C0E4EFFF780FE361B3611B54207DB19
:103D10000020FFF715FF0028FAD101233B70F8BD02
:103D200063685B791BB1236820461B69984701359E
:103D30001034EBE7C5260020ECDB0100FCDB0100C2
:103D400008B5FFF761FE14F0A1FA094A106028B126
:103D5000084B1B68092B01DD14F072FA0020FFF7F5
:103D6000EFFE0028FAD14FF47A7019F0CCFBF5E79A
:103D700050020020B4010020204B70B51B68418127
:103D8000054698471E4CE860BFF35B8F54E8003F40
:103D9000013344E80032002AF8D1BFF35B8F4FF0C3
:103DA0002003EFF3118683F31188BFF36F8F15485B
:103DB000294615F01CFC86F31188BFF36F8F124B58
:103DC0001B787BB14FF02003EFF3118483F311884C
:103DD000BFF36F8F0020FFF7B3FE84F31188BFF3AA
:103DE0006F8F70BD23680A2BFBD1084B1868002821
:103DF000F7D0BDE8704014F023BA00BF90CA00208D
:103E0000B4010020C0010020C5260020500200207F
:103E100007B504380190BFF35B8F50E8003F5A1E8E
:103E200040E800210029F8D1BFF35B8F012B03D1BB
:103E300001A9034813F004FD03B05DF804FB00BFC3
:103E4000C801002020231A460149024819F031B95F
:103E5000705400205402002037B50023094D01930F
:103E60000120FFF76DFE0446FFF732FD002201A995
:103E7000284613F0B9FC08B1002CF1D1019803B029
:103E800030BD00BF5402002007B5002201A906483A
:103E9000019213F0A9FC10B1FFF7DEFF0190019829
:103EA00003B05DF804FB00BF540200207FB5047A24
:103EB000457A019014F001044FEA15150ED0019BCC
:103EC0001A7A920704D55B69104C0393039BB3B92C
:103ED00001A90E4813F0B4FC04B070BD002DEED063
:103EE000A5420198EBD9214615F061FC0646FFF783
:103EF00019FE10B13046FFF78BFF0134F0E71D6863
:103F000003A9204613F09CFC0395DFE75402002030
:103F10000EB403B503AB014653F8042B04480193D8
:103F200014F0F0FF002002B05DF804EB03B070471E
:103F3000B79B01002DE9F04F85B011F00204064651
:103F400090469DF8387001F0010901F0080507D08E
:103F500011F0440F37D11A463249FFF7D9FF044612
:103F6000B9F1000F0AD0304B304953F82720304BBD
:103F70003046002A08BF1A46FFF7CAFF3DB12D4B55
:103F80002D4953F827203046FFF7C2FF0546B8F108
:103F9000000F44D0012303FA07F7284B17F0100F46
:103FA000274F18BF1F46BDF840109DF83C00FFF793
:103FB0009FFC394602463046FFF7AAFF28442044BA
:103FC00005B0BDE8F08F1F4A116831B31E4A4FF4A7
:103FD000616E1468B3FBF4F34FF47A7CB3FBF1F435
:103FE000B4FBFEF20EFB124E01FB14340CFB04F486
:103FF0004FF03C0AB4FBF1FB01FB1B44BEFBFAF3A0
:104000000CFB04F4B4FBF1F1CDE901B10AFB13E1BF
:1040100000910E49FFF77CFFA1E708469FE7084F94
:10402000C1E700BF18F0010044DD0100E600020016
:104030000AF0010058DD01003DF0010014F001001C
:104040000FF00100700200207402002021F0010036
:104050002DE9F8439846089B1746DA0604460E46B3
:1040600005D49B064CBF21492149FFF751FFDFF8DA
:1040700088900025454528DBDFF88080DFF88090B8
:104080000025AF4227D9725D49462046FFF740FF21
:104090000135082DF5D11749DFF85C80DFF8649011
:1040A0002046FFF735FF0025AF4219D9725DA2F116
:1040B00020035F2B28BF2E2249462046FFF728FF0A
:1040C0000135082DF0D1BDE8F88349462046FFF7B9
:1040D0001FFF0135CEE741462046FFF719FFD7E71E
:1040E00041462046FFF714FFEAE700BF07E701005B
:1040F00092F00100E9EF0100E7EF0100E5EF0100B8
:10410000DFEF01005EF5010038B50C46E10705461A
:1041100003D5084A0849FFF7FBFEE20608D4A306C8
:1041200028464CBF05490649BDE83840FFF7F0BEB8
:1041300038BD00BF0AF00100E600020007E70100F9
:1041400092F001002DE9F0478B7A13F0070417462F
:1041500088B005460E460A7A1CD04989C3F3C203CB
:104160008909D2430291CDE9004302F00102F368CC
:104170003946FFF7DFFE8146337ADA070CD4294649
:10418000304615F0AEFB4CB3224639462846FFF7C1
:10419000BBFF23E0A146EFE734BB2746EB6806935D
:1041A00006AA3B46A968304615F087FB069A6B685D
:1041B0001A603AB1AB68134413F8014CA4F10A0336
:1041C0005C425C41284615F0E9FC069B1F44002B2D
:1041D000E4D11CB114492846FFF79AFE284615F091
:1041E000DDFC08B0BDE8F087304615F010FB0F4944
:1041F00002462846FFF78CFE4FF000084FF0080AF1
:1042000005AA434606A93046CDF814A015F055FB83
:10421000059A002AB8D04B46009706A92846FFF712
:1042200017FF059B9844EBE7EBEF0100E600020067
:1042300073B5D0E900435D680F4A42F20F738B42B9
:1042400028BF0B466846052103F0DAFA2B460646DE
:1042500004222046094915F037FB2B4632466946B1
:10426000204615F031FB2B4617220549204615F054
:104270002BFB02B070BD00BF4A0D020005F001002B
:10428000EDEF0100084A10B50123084C136000212E
:10429000A04204D801B11360054B186010BD40085E
:1042A0005B000121F4E700BF7402002040420F00D0
:1042B0007002002000230428CB604B6098BF044BA1
:1042C000044A98BF53F820308A600B60704700BFE3
:1042D000ACDD010088DD01000022084B0A60CA60E5
:1042E0004A608B60064A074BD21AB0EB221F3EBFD2
:1042F00003EB00139B680B60704700BFECDE01000E
:10430000FCDB0100ECDB01002DE9F347114C124D01
:10431000DFF84880DFF84890DFF848A02D1B0746FB
:104320002D110026AE4203DB002002B0BDE8F0876D
:10433000626853791279002B14BF43464B46CDE98E
:1043400000320021A3685246384615F024FD01369C
:104350001034E7E7ECDB0100FCDB010063F0010057
:104360006BF0010074F001002DE9F74F214B224D55
:10437000ED1A4B685B7906460F46ED081BB91F4ADC
:10438000042115F008FD1E4B1E4ADFF88080DFF87F
:1043900080900021304615F0FEFC1B4A002130467B
:1043A00015F0F9FC0024AC4203D1002003B0BDE8B5
:1043B000F08F2246012300213846FFF767FB0023D8
:1043C0002246194682463846FFF760FB214683465F
:1043D0000020FFF78DFA58F82B30019358F82A3057
:1043E00000934A4603460021304615F0D4FC0134C0
:1043F000D9E700BFBCDA0100ECDB0100F0F00100FE
:1044000002F101000EF101002CF1010098DD010024
:1044100069F1010010B50023054ACB600C464B60E2
:104420008A6001461846FFF763FA206010BD00BF9E
:1044300088DD01002DE9F04F1F462C4D2C4BED1A65
:10444000161E85B04FEAD50514BF33462B4603939D
:104450004B685B79804689461BB9264A042115F0D2
:104460009AFCDFF89CA00024039B9C4202DB05B071
:10447000BDE8F08FBEB357F8243002934FF0000B25
:104480005D4507D157F824301B4A0221404615F0FC
:1044900082FC20E059460020FFF72AFA40220299C8
:1044A00016F090FBC8B95A460E9B00214846FFF70C
:1044B0002DFA0E9B834283460DD08EB9214630469D
:1044C000FFF716FA03465AF82B20009204210B4AF4
:1044D000404615F060FC0134C6E70BF1010BCFE755
:1044E00057F82430EFE72246DEE700BFECDB01009F
:1044F000BCDA010095F00100C0F00100AAF0010053
:1045000098DD01002DE9F04F52F8047C194C85B07C
:1045100080463846914602938B4616F040FB164A79
:10452000121B1211034601920025A246019A9542E0
:1045300008DB3B46114A0221404615F02CFC6FF087
:10454000070612E0A16803931A46384616F03AFBB4
:104550001034064610B10135039BE7E74B465A4637
:104560000AEB05114046029CA047304605B0BDE865
:10457000F08F00BFECDB0100FCDB01007DF10100EE
:1045800008B5024BFFF7BEFF002008BD69430000DD
:10459000014BFFF7B7BF00BFD99B0100014BFFF7ED
:1045A000B1BF00BFE19B0100014BFFF7ABBF00BFF4
:1045B000E1450000014BFFF7A5BF00BFEB9B0100E9
:1045C000C369DB6810B51C792CB9044A022115F0C7
:1045D000E2FB204610BD0120FCE700BF92F1010084
:1045E0002DE9F74FD3F804B0DFF85080074689462D
:1045F00092461E460024042258F8041B584616F022
:10460000E1FA054670B10134052CF4D173680A4A09
:104610000221384615F0BFFB6FF00705284603B0AE
:10462000BDE8F08F009406F10803AAF102024946A2
:104630003846FFF7FFFEF1E7DAF0010098DD0100F0
:1046400013B5044618F0BEFFC0F307230193C0F36F
:1046500007430093044A030E0021204615F09BFBFC
:10466000002002B010BD00BF6CF3010010B504467D
:1046700019F06BF8034A03460021204615F08BFB26
:10468000002010BD5DF3010010B5044601F080FE6E
:10469000034A03460021204615F07DFB002010BD93
:1046A00047F30100F8B50B4A0B4C0C4D0C4F0021A1
:1046B000064615F070FBAC4201D10020F8BD6368DE
:1046C00033B123683A461B680021304615F063FB7E
:1046D0000C34F0E722F4010090CF002044D00020F9
:1046E0002CF40100F8B50C4B0C4F53F8214001316C
:1046F000064653F821500020A54200D8F8BD636853
:104700003BB1236830461B683A46002115F043FB55
:1047100001200C34F0E700BF7CDF01002CF4010025
:1047200010B51F4A0446002115F035FB0221204632
:10473000FFF7D8FF014618B91A4A204615F02BFB9F
:10474000194A0021204615F026FB03212046FFF7D9
:10475000C9FF014618B9134A204615F01CFB134A3D
:104760000021204615F017FB00212046FFF7BAFF75
:10477000014618B90B4A204615F00DFB0C4A0021E2
:10478000204615F008FB01212046FFF7ABFF01464C
:1047900018B9044A204615F0FEFA002010BD00BFEB
:1047A000E0F30100EEF30100F6F3010004F4010070
:1047B00013F4010037B58368D3F858225206044633
:1047C0000D4608D5B3F85822C0686FF38612A3F8D7
:1047D000582215F06FFFE368DB6863B99DB3A068EA
:1047E000383015F086FAA36878B303F1380103F581
:1047F0009C7016F0A9F9A268E0680DF10603383242
:10480000294615F05AFF58B9A06800F59C71383058
:1048100016F09AF9A068383015F06BFAADF806007A
:10482000204615F085FD0A4A0A49606915F067FAC5
:10483000204600F079FEA368BDF806209A865A86C5
:10484000204600F033FE03B030BD83F83801D2E7D4
:1048500088F40100E60002002DE9F04F9DB0044607
:104860000023039315F06AFD204615F0EFFC18B9FC
:104870008D49606915F043FAA068142200210830C0
:1048800016F000FA204615F088FCA168E0684A8E10
:10489000383115F049FF204616F0E7F8A2680C23DE
:1048A00038320FA904A815F00DFB049A03462AB963
:1048B0006FF0070528461DB0BDE8F08F28B17B4A90
:1048C0000221204615F0D3FDF2E705460746814652
:1048D0008246064683463EE0754958F8340C16F089
:1048E00065F9002845D058F8342C5946204601F087
:1048F00057FA022828D1B9F1000F09D0204616F046
:10490000D6F8A2680C2338320FA904A815F0DAFAF9
:10491000A0684369002B40F08F80002DC8D0C36889
:104920009D420CD00B9500F1080503E0A3680B95A0
:1049300003F108050AAE0FCE0FC533682B60204681
:1049400015F0EAF90125B5E703281AD00136B84673
:104950004FF001094746049BB342CCD98EB11CAB42
:1049600003EB8608534958F8340C16F01FF9002859
:10497000B2D1002DDAD1504A0221204615F077FD40
:1049800096E705AB019303AB07F1010800933246AC
:104990003B465946204600F037FDB8F1000F01D0E4
:1049A000039B83B9002EA6D1A368DB6913B1DB6832
:1049B000002BA0D1414B0093414A0F9B022120467E
:1049C00015F055FD74E719681CAB03EB860353F82B
:1049D000340C16F0EBF80028BCD1039FFB68BBB188
:1049E000B9F1000F07D0204615F0A8FC204600F0D2
:1049F0005DFD344AC0E7A368BE4603F1080CBEE87B
:104A00000F00ACE80F00DEF80030CCF80030B24602
:104A1000D7F804C0BCF1000F08D0BE46BEE80F00B6
:104A20000AAD0FC5DEF800302B6065460136D7F8B9
:104A300008B04FF000088DE7049D037EA5EB0A0542
:104A40008BB19D42427E02D313449D420BD98368B1
:104A50001D4A0221204615F00AFD204615F05CF99A
:104A60006FF0150526E700F53B7013F0DDF8A3683D
:104A7000B3F8582242F08002A3F858220FAA294620
:104A80005B6902EB8A02204698470546A068B0F8A9
:104A900058326FF3C713A0F858324FF0FF3100F5CA
:104AA0003B7013F04FF805E707E7010095F40100AC
:104AB000ACF40100A9F40100B3F40100D1F4010049
:104AC000E5F50100E5F4010014F501002DE9F04FD2
:104AD0008368BFF35B8FADB0044603F5167353E8EC
:104AE000002F42F0080243E800210029F7D1BFF36C
:104AF0005B8FA3681B79022B40F0778300230B9315
:104B00006068036801221D690DF12B010BABA847FA
:104B10000B9B002B00F069839DF82B100806EFD447
:104B2000A0684379022B00F25E83DFE813F00300F4
:104B3000CE02F3020D291BD00A2919D0B0F8583241
:104B40006FF30F23A0F85832092955D03AD800291D
:104B5000D6D0082900F01C82A1F120035E2B00F2C0
:104B60002682B0F8583243F04003A0F858321FE1D3
:104B7000D0F8583213F47F4F05D0D0F85832C3F331
:104B800007239942E0D1B0F8583261F30F23A0F81F
:104B90005832438E93B9C26982B9B0F8583262F381
:104BA0008613A0F85832E06815F084FD85496069E5
:104BB00015F0A5F8204615F0B8F8A1E72046FFF754
:104BC0004BFEF7E71B2914D07F29C5D1D0F8583206
:104BD0005F0795D5B0F8583243F04003A0F858323B
:104BE000D0F858329E0600F1DE81204615F080FC98
:104BF00086E70123437183E7D0F85832C3F3800975
:104C0000B9F1000F3FF47CAFB0F8583243F04003E5
:104C1000A0F85832438EFF2B3FF472AF828E00F122
:104C2000380100F59C7016F003F8A268938E1344C7
:104C3000002183F8381102F59C720C231FA90DA8DE
:104C400015F040F9A3689A8E134493F83730202B5F
:104C500054D0093B042B8CBF002301230D9919B1BB
:104C6000002B4ED101294BD100250C950C9B2CAA71
:104C700002EB8303002653F834AC504615F039F8A4
:104C8000B046049005960396B3461AAF002D45D062
:104C9000A9682B1C18BF0123CDE9017315AB009344
:104CA000029A4346204600F0AFFB159B002B39D0FB
:104CB0001868002834D0DA68002A31D19B68B3FA2A
:104CC00083F35B09049A0293514615F07BFF029B24
:104CD000034310D1159B186815F061FF059B8342B3
:104CE00038BF03469BB205930136BBF1000F02D1DA
:104CF000CDF80C80CB4608F10108C7E70123ADE7EA
:104D000001390023019310AB00931FAA0CAB20467E
:104D100015F0C4F905460028A8D1F1E62946B8E700
:104D20000023CFE7012E4FD10C9B2CAA02EB83036B
:104D300053F8340C14F0DDFF064605B1AD68A368E6
:104D40000833CDE900732946DDE90223204600F04F
:104D50005BFB1A9B186814F0CCFF864207D01A9BA5
:104D60001968821B92B23144204615F0BFFBA3683C
:104D70009A8E1A4492F83820202A1DD0093A042A23
:104D80001AD9D3F85822D20711D5B3F858226FF3A5
:104D90000002A3F858222021204600F095FCA268CA
:104DA000B2F8583243F00103A2F85832A8E62021A5
:104DB000204600F089FCA3E60121204615F05AFAAE
:104DC0009EE600BF07E7010006937FF699AE0C9AB6
:104DD000DFF83C832CAB03EB820252F8343C0493A3
:104DE000184614F086FFA268069BDDF80C90089028
:104DF00013860696002D7BD0A968A368029A083313
:104E000001931AAB009320464B4600F0FDFA1A9B23
:104E1000186809F1010900286CD11A9BD3F800A089
:104E2000BAF1000F76D1A368A3F830A0069B013B2E
:104E30000693DFD1B049606914F061FF204600F0AD
:104E400075FC0C9B2CAA02EB830353F8340C14F072
:104E500050FF039B804603F10109002D00F0928072
:104E6000A96815AB01930EAB00932046DDE9022340
:104E700000F0CAFA0E9BD3F800A04FF6FF77002D82
:104E800000F08480A968029A1AAB01930FAB0093DB
:104E900020464B4600F0B8FA0F9B09F1010BDBB13D
:104EA0000E9A18681168002211F802C0835C6345ED
:104EB00005D123B101324FF6FF739A42F4D1B8F114
:104EC000000F01D042455FDB974206F1FF36A8BFD5
:104ED0001746012EBFB257D1002F3FF411AEA7EBFA
:104EE000080292B20AEB0801204615F0FFFA07E625
:104EF000294682E7DA681AB99B68002B3FF47AAF3B
:104F0000049B002B89D0089A049915F05BFE0028B9
:104F100083D06FE7404614F0ECFE059B1844A3686D
:104F20001FFA80FB40465F8D14F0E3FE0990504667
:104F300014F0DFFEABEB000083B2A1680793099B7E
:104F40000A8EFF1A97FBFBFB1FFA8BFB501CB2FB70
:104F5000FBF30BFB132292B2088662B9CDF800A0D6
:104F60004346664A0721204615F081FA07992046F4
:104F700000F08CFA5AE75346614A0721204615F0A3
:104F800076FAF3E729466CE7D94678E729467AE7C7
:104F9000D0F858325B077FF5B3ADB0F8583243F024
:104FA0004003A0F85832204615F0BDFAA8E5D0F825
:104FB00058325D077FF5A4AD013916293FF6A0AD43
:104FC00001A353F821F000BFB151000025500000AB
:104FD0002D500000EB4B0000A55100005350000085
:104FE000014B0000014B0000014B0000014B000091
:104FF0005B50000063500000014B00007F50000038
:10500000014B000089500000014B0000014B0000E3
:10501000014B0000014B00008D500000014B0000CF
:10502000B9500000204615F090F969E5204615F0CA
:1050300085F9204615F00AF918B92F49606914F06E
:105040005EFEA268B2F8583243F04003A2F858322C
:10505000B0E5204615F081F952E5204615F086F9B5
:105060004EE56069274A264914F049FE6069264AE0
:10507000234914F044FE204600F058FB40E500218F
:105080002046FFF797FB3BE50121F9E7204615F0A5
:105090004FF9A3681A49002283F838209A865A8665
:1050A000A268B2F8583243F04003A2F8583260695F
:1050B000164A14F024FE23E5204600F087FAA26881
:1050C000B2F8583243F040036EE65B2901D1022367
:1050D00090E5D0F85832580706D5622908D14FF02C
:1050E000FF31204615F0EAF8A36800225A7107E55F
:1050F0006629F9D10121F4E707E701002FF5010046
:10510000E60002008CF4010090F4010088F4010034
:10511000E6EF010000234371D0F858325A077FF5BB
:10512000EFAC31391B293FF6EBAC01A353F821F06A
:10513000AD510000B9510000D7510000A15100004D
:10514000014B0000014B0000014B0000014B00002F
:10515000014B0000014B0000014B0000014B00001F
:10516000014B0000014B0000014B0000014B00000F
:10517000895000007F50000053500000255000006F
:10518000014B0000A5510000014B0000B15100008F
:10519000014B0000014B0000014B0000BD5100001D
:1051A00003234371204615F0C9F8A9E40323437192
:1051B000204615F0BDF8A3E403234371D0F858321C
:1051C000B0F8582203F0010383F0010363F30002F7
:1051D000A0F8582294E403234371D0F858325B07B7
:1051E0007FF58EAC01E5002304E5A368BFF35B8F78
:1051F00003F5167353E8002F22F0080243E800215C
:105200000029F7D1BFF35B8F2DB0BDE8F08F00BF51
:105210002DE9F04104464068374A1F46036886B0CE
:105220001D682346A8470646002861D101464FF471
:105230004172A06815F026FDA36822681A60E06834
:1052400015F0DDFAA06800F53B7017F077FF4FF41A
:1052500027784FF41775A068284418F016FBA0684B
:105260000022431901214044103513F09BFAB5F593
:10527000277F08F11408EED1A36900251D60A368FB
:10528000B3F85822186842F01002A3F85822B3F875
:10529000582242F00402A3F85822B3F8582242F0F0
:1052A0002002A3F8582201221A71144A9A6214F0BB
:1052B00020FDA36883F82C00A268B2F8583243F0AE
:1052C0000203A2F858320E2303930C9B0094CDE9FD
:1052D0000173D4E90A010A4BCDE904554FF4006289
:1052E00013F07EF8A368616AC3F8000318F03EF972
:1052F000304606B0BDE8F0813F9D01001800500027
:105300003553000083681B79012B10B504460BD17F
:10531000002100F011F90649606914F0F0FC204604
:1053200014F003FD002010BD6FF02200FBE700BF6A
:1053300006E701002DE9F0410446406803680E4687
:105340009B6800211546984700283ED126B12A4681
:105350002146E06915F0DFFA2046FFF7D3FFA0BB36
:105360001B4F1C4EA06803214FF0FF3200F5277041
:1053700013F02CFA0546A0684FF0FF3100F53B70A2
:1053800012F0E0FB3DB12B462046134A0221BDE856
:10539000F04115F06CB8606803685B6903B1984729
:1053A0003A462046022114F074FC32462046002181
:1053B00014F06FFC2046094A012114F06AFCA06831
:1053C00000F53B7012F030FCCCE7BDE8F08100BF87
:1053D000BD9C0100CD4A000035F50100539D010040
:1053E00010B5044613460A460146064801F04AFD38
:1053F00023691B7923B12046BDE8104014F0FABCA4
:1054000010BD00BF0D9E010070B5DDE9044600200F
:10541000206052B90F48104A121AB3EBD20F03D2D0
:1054200000EBC3035B68236070BD0029FCD00A78E1
:105430004D683AB118463146A8473368002BF3D07F
:105440002660F1E714225343EA18EB58002BEBD007
:105450002260E9E7FCDB010044DC0100014A02496B
:1054600014F0D3BE4CF50100E600020059B100294A
:1054700081EAE172A2EBE172CCBF412342230249EF
:10548000406914F0C2BE70475AF5010059B10029B5
:1054900081EAE172A2EBE172CCBF432344230249CB
:1054A000406914F0B2BE70475AF5010010B50446C9
:1054B00014F0CCFE28B160690549BDE8104014F035
:1054C000A4BE04F1080014F0ADFE0028F3D110BD15
:1054D00007E701002DE9F0410646054656F8084F5A
:1054E00004F12000628EA18E14F0D6FC3046B4F890
:1054F0002480E78C14F096FE18B10A49686914F00C
:1055000084FEB84507D1218C638C2846C91ABDE8B2
:10551000F041FFF7BBBFE18CA38C2846C91AFFF707
:10552000A5FFF0E707E701008268024940693832C9
:1055300014F06BBEE6000200836807B593F82E20D6
:105540008A4212D083F82E10406989B1094B00932A
:1055500033238DF804302F316D238DF80510ADF80D
:1055600006306A46044914F050FE03B05DF804FBAF
:10557000024AF7E71B5B313BE600020056F50100EB
:1055800037B50D4609780446FFF7D6FF6B78CBB1E7
:10559000A26892F82F10994214D045F61B31ADF84D
:1055A000001034218DF8021003F12F018DF8031043
:1055B0006D21ADF8041082F82F30034960696A4606
:1055C00014F023FE03B030BDE6000200F8B5836896
:1055D0005A8E0546002A46D0988E002843D0373090
:1055E000184403F138060346C41AB342A4B219465C
:1055F0000DD311F80179202F33D01946013B0878DB
:10560000202804D001349E42A4B21946F5D9631C67
:105610004E1C121B1944304615F0F3FAA9684A8E45
:10562000121B92B24A860A440027614282F83870FF
:10563000284609B214F01EFE68690B4A0B4914F0A3
:10564000E4FD39463346094A284614F010FF6869DC
:10565000FFF704FF6869064A0449BDE8F84014F002
:10566000D4BD0B46C0E7F8BD50F50100E6000200CE
:1056700053F5010070B504460D46164612B1406957
:10568000FFF7ECFEA268938E3833134420460C4A91
:10569000002114F0ECFE204650F8083F5A8E9A86FE
:1056A00014F0C0FD28B106B11DB10649606914F0BF
:1056B000ACFD6942204609B2BDE8704014F0DABD85
:1056C000E600020007E7010013B583688DF80710B4
:1056D000D3F85822D20704461DD5998E5A8E8A4295
:1056E00019D0481C98860B449DF8072083F8382071
:1056F000A368D3F858325B070BD56069094914F0E9
:1057000084FD204614F0A2FD18B10749606914F029
:105710007CFD02B010BD01220DF10701204614F0FE
:10572000B3FEF6E75EF5010007E7010083680A4A69
:105730001B6810B50446032114F099FEA368D3F842
:1057400058325B0707D52046FFF7EEFE2046BDE83E
:105750001040FFF7BFBE10BDE600020007B50748C6
:1057600011F0B4FE04230093012301461A460448B5
:10577000FFF74EFD002003B05DF804FB61F501006A
:10578000E4DF0100406810B50C4601688B60636877
:10579000C1E900422BB19B6C1BB102460449204673
:1057A000984763689B6A0BB120469847002010BD5C
:1057B000B557000003682DE9F04F1D686B685B6CFE
:1057C00085B004460BB1284698476B685B6B002B8D
:1057D00030D02846984700282CD03C4E3C4BDFF870
:1057E000F4A0DFF8F4B0F61AC6F3C9060027E068A3
:1057F00003A9026913F01CFD804600283FD02368EE
:10580000186843689B69002B37D042460399984734
:10581000031E1946E068019318BF012713F024FD09
:10582000019B0BB19845E2D027B123680020D3E952
:10583000012190476B685B6AE3B128469847C8B17D
:10584000A068236802691E6803A913F03FFD05469E
:10585000002834D073685B697BB3024603993046F5
:1058600098470146A06813F052FD23680120D3E950
:105870000121904705B0BDE8F08F1846C8E7DAF877
:10588000003013F0060F0BD029F03F0343F0020362
:1058900063F3070966F38F194946584613F0C6FEAD
:1058A0002368186843689B692BB101220DF10B0135
:1058B00098470346B5E71846FBE71946D2E7304656
:1058C00014F042FE2368DD60CFE700BFDCDB01009F
:1058D000BCDA0100D4D0002095F501002DE9F04795
:1058E000054690460F4600296ED000243B5D202BD4
:1058F00025D0093B042B22D9DFF8D090384615F08B
:105900004EF9AB68598D80B2001BA1EB0803984299
:1059100007EB040A15D95046002610F8012B202A5F
:1059200006D0A2F1090CBCF1040F02D80A2A31D02A
:10593000334608EB060291422BD90136EDE70134DC
:10594000D4E753460026B04217D013F8012B0A2A99
:1059500004EB06091BD1686914F04CFA3246514633
:10596000284614F027FD1949686914F03DFE4146A8
:10597000284609F10104FFF789FD3919686914F017
:1059800033FE68691149BDE8F04714F02DBE0136B9
:10599000D9E71E46686914F02DFA3246514628466A
:1059A00014F008FD34443B5D202B0BD0093B042B45
:1059B00008D94946686914F017FE41462846FFF7A2
:1059C00065FD9BE70134EEE7BDE8F08707E70100DE
:1059D0002DE9F04F82688DB01269002304460693CA
:1059E000002A51D098461D4607AE06AFCDE9007695
:1059F000A1684346012209692046FFF705FD069B81
:105A000008F10109002B3CD0186810B115F0C7F857
:105A100080B2854238BF0546B8F1FF3F2FD1204AFA
:105A2000DFF880900021204614F021FD0023CDE90D
:105A30000076A16801220969204603F1010BFFF7F6
:105A4000E3FC069B03B31A6816480592D3F804805A
:105A500015F0A5F8059A82467AB1CDE9012900959D
:105A60004B46114A0021204614F001FDB8F1000F09
:105A70000DD10E49606914F0B7FD5B46D7E7C84603
:105A8000B4E7B9F1010FCAD10DB0BDE8F08F6A1CBF
:105A900002EB4A0292B241462046FFF71FFFECE7B5
:105AA000AEF50100C6F50100BCF5010007E70100F5
:105AB000836873B505469868C8B115F070F884B26C
:105AC0000C4E304615F06BF8AB68009604449B68AA
:105AD000094A2846002114F0CAFCAB68A4B2D96870
